{"contracts/CropMarketplace.sol":{"CropMarketplace":{"abi":[{"anonymous":false,"inputs":[{"indexed":false,"internalType":"uint256","name":"cropId","type":"uint256"}],"name":"CropDelisted","type":"event"},{"anonymous":false,"inputs":[{"indexed":false,"internalType":"uint256","name":"id","type":"uint256"},{"indexed":false,"internalType":"address payable","name":"user","type":"address"},{"indexed":false,"internalType":"string","name":"name","type":"string"},{"indexed":false,"internalType":"string","name":"image","type":"string"},{"indexed":false,"internalType":"string","name":"location","type":"string"},{"indexed":false,"internalType":"uint256","name":"harvestDate","type":"uint256"},{"indexed":false,"internalType":"bool","name":"deliveryAvailable","type":"bool"},{"indexed":false,"internalType":"uint256","name":"totalQuantity","type":"uint256"},{"indexed":false,"internalType":"uint256","name":"perQuintalPrice","type":"uint256"},{"indexed":false,"internalType":"string","name":"description","type":"string"}],"name":"CropListed","type":"event"},{"anonymous":false,"inputs":[{"indexed":false,"internalType":"uint256","name":"cropId","type":"uint256"},{"indexed":false,"internalType":"address","name":"buyer","type":"address"},{"indexed":false,"internalType":"uint256","name":"quantity","type":"uint256"},{"indexed":false,"internalType":"uint256","name":"totalPrice","type":"uint256"}],"name":"CropPurchased","type":"event"},{"anonymous":false,"inputs":[{"indexed":false,"internalType":"uint256","name":"cropId","type":"uint256"},{"indexed":false,"internalType":"string","name":"name","type":"string"},{"indexed":false,"internalType":"string","name":"image","type":"string"},{"indexed":false,"internalType":"string","name":"location","type":"string"},{"indexed":false,"internalType":"uint256","name":"harvestDate","type":"uint256"},{"indexed":false,"internalType":"bool","name":"deliveryAvailable","type":"bool"},{"indexed":false,"internalType":"uint256","name":"totalQuantity","type":"uint256"},{"indexed":false,"internalType":"uint256","name":"perQuintalPrice","type":"uint256"},{"indexed":false,"internalType":"string","name":"description","type":"string"}],"name":"CropUpdated","type":"event"},{"anonymous":false,"inputs":[{"indexed":false,"internalType":"uint256","name":"msgValue","type":"uint256"},{"indexed":false,"internalType":"uint256","name":"totalCost","type":"uint256"}],"name":"Log","type":"event"},{"inputs":[{"internalType":"uint256","name":"_cropId","type":"uint256"},{"internalType":"uint256","name":"_quantity","type":"uint256"}],"name":"buyCrop","outputs":[],"stateMutability":"payable","type":"function"},{"inputs":[],"name":"cropCounter","outputs":[{"internalType":"uint256","name":"","type":"uint256"}],"stateMutability":"view","type":"function"},{"inputs":[{"internalType":"uint256","name":"","type":"uint256"}],"name":"crops","outputs":[{"internalType":"uint256","name":"id","type":"uint256"},{"internalType":"address payable","name":"user","type":"address"},{"internalType":"string","name":"name","type":"string"},{"internalType":"string","name":"image","type":"string"},{"internalType":"string","name":"location","type":"string"},{"internalType":"uint256","name":"harvestDate","type":"uint256"},{"internalType":"bool","name":"deliveryAvailable","type":"bool"},{"internalType":"uint256","name":"totalQuantity","type":"uint256"},{"internalType":"uint256","name":"perQuintalPrice","type":"uint256"},{"internalType":"string","name":"description","type":"string"},{"internalType":"bool","name":"listed","type":"bool"}],"stateMutability":"view","type":"function"},{"inputs":[{"internalType":"uint256","name":"_cropId","type":"uint256"}],"name":"delistCrop","outputs":[],"stateMutability":"nonpayable","type":"function"},{"inputs":[],"name":"getAllCrops","outputs":[{"components":[{"internalType":"uint256","name":"id","type":"uint256"},{"internalType":"address payable","name":"user","type":"address"},{"internalType":"string","name":"name","type":"string"},{"internalType":"string","name":"image","type":"string"},{"internalType":"string","name":"location","type":"string"},{"internalType":"uint256","name":"harvestDate","type":"uint256"},{"internalType":"bool","name":"deliveryAvailable","type":"bool"},{"internalType":"uint256","name":"totalQuantity","type":"uint256"},{"internalType":"uint256","name":"perQuintalPrice","type":"uint256"},{"internalType":"string","name":"description","type":"string"},{"internalType":"bool","name":"listed","type":"bool"}],"internalType":"struct CropMarketplace.Crop[]","name":"","type":"tuple[]"}],"stateMutability":"view","type":"function"},{"inputs":[{"internalType":"address","name":"_addr","type":"address"}],"name":"getBalance","outputs":[{"internalType":"uint256","name":"","type":"uint256"}],"stateMutability":"view","type":"function"},{"inputs":[{"internalType":"uint256","name":"_cropId","type":"uint256"}],"name":"getCropById","outputs":[{"components":[{"internalType":"uint256","name":"id","type":"uint256"},{"internalType":"address payable","name":"user","type":"address"},{"internalType":"string","name":"name","type":"string"},{"internalType":"string","name":"image","type":"string"},{"internalType":"string","name":"location","type":"string"},{"internalType":"uint256","name":"harvestDate","type":"uint256"},{"internalType":"bool","name":"deliveryAvailable","type":"bool"},{"internalType":"uint256","name":"totalQuantity","type":"uint256"},{"internalType":"uint256","name":"perQuintalPrice","type":"uint256"},{"internalType":"string","name":"description","type":"string"},{"internalType":"bool","name":"listed","type":"bool"}],"internalType":"struct CropMarketplace.Crop","name":"","type":"tuple"}],"stateMutability":"view","type":"function"},{"inputs":[{"internalType":"string","name":"_name","type":"string"},{"internalType":"string","name":"_image","type":"string"},{"internalType":"string","name":"_location","type":"string"},{"internalType":"uint256","name":"_harvestDate","type":"uint256"},{"internalType":"bool","name":"_deliveryAvailable","type":"bool"},{"internalType":"uint256","name":"_totalQuantity","type":"uint256"},{"internalType":"uint256","name":"_perQuintalPrice","type":"uint256"},{"internalType":"string","name":"_description","type":"string"}],"name":"listCrop","outputs":[],"stateMutability":"nonpayable","type":"function"},{"inputs":[{"internalType":"uint256","name":"_cropId","type":"uint256"},{"internalType":"string","name":"_name","type":"string"},{"internalType":"string","name":"_image","type":"string"},{"internalType":"string","name":"_location","type":"string"},{"internalType":"uint256","name":"_harvestDate","type":"uint256"},{"internalType":"bool","name":"_deliveryAvailable","type":"bool"},{"internalType":"uint256","name":"_totalQuantity","type":"uint256"},{"internalType":"uint256","name":"_perQuintalPrice","type":"uint256"},{"internalType":"string","name":"_description","type":"string"}],"name":"updateCrop","outputs":[],"stateMutability":"nonpayable","type":"function"}],"evm":{"bytecode":{"linkReferences":{},"object":"608060405234801561001057600080fd5b5061277e806100206000396000f3fe6080604052600436106100865760003560e01c80638cbeb8f6116100595780638cbeb8f6146101635780639385882a1461018c578063a086dd88146101b7578063e9b88958146101d3578063f8b2cb4f146101fc57610086565b80631d48dc901461008b5780632a674aa8146100b657806370c9f1a5146100f357806389c3c3c41461013a575b600080fd5b34801561009757600080fd5b506100a0610239565b6040516100ad9190611702565b60405180910390f35b3480156100c257600080fd5b506100dd60048036038101906100d89190611764565b610604565b6040516100ea9190611895565b60405180910390f35b3480156100ff57600080fd5b5061011a60048036038101906101159190611764565b61097f565b6040516101319b9a9998979695949392919061192e565b60405180910390f35b34801561014657600080fd5b50610161600480360381019061015c9190611b56565b610c33565b005b34801561016f57600080fd5b5061018a60048036038101906101859190611c90565b610dae565b005b34801561019857600080fd5b506101a1610fa4565b6040516101ae9190611db6565b60405180910390f35b6101d160048036038101906101cc9190611dd1565b610faa565b005b3480156101df57600080fd5b506101fa60048036038101906101f59190611764565b611250565b005b34801561020857600080fd5b50610223600480360381019061021e9190611e4f565b6113a2565b6040516102309190611db6565b60405180910390f35b60606000805467ffffffffffffffff811115610258576102576119ff565b5b60405190808252806020026020018201604052801561029157816020015b61027e6113c3565b8152602001906001900390816102765790505b5090506000600190505b60005481116105fc576001600082815260200190815260200160002060405180610160016040529081600082015481526020016001820160009054906101000a900473ffffffffffffffffffffffffffffffffffffffff1673ffffffffffffffffffffffffffffffffffffffff1673ffffffffffffffffffffffffffffffffffffffff16815260200160028201805461033390611eab565b80601f016020809104026020016040519081016040528092919081815260200182805461035f90611eab565b80156103ac5780601f10610381576101008083540402835291602001916103ac565b820191906000526020600020905b81548152906001019060200180831161038f57829003601f168201915b505050505081526020016003820180546103c590611eab565b80601f01602080910402602001604051908101604052809291908181526020018280546103f190611eab565b801561043e5780601f106104135761010080835404028352916020019161043e565b820191906000526020600020905b81548152906001019060200180831161042157829003601f168201915b5050505050815260200160048201805461045790611eab565b80601f016020809104026020016040519081016040528092919081815260200182805461048390611eab565b80156104d05780601f106104a5576101008083540402835291602001916104d0565b820191906000526020600020905b8154815290600101906020018083116104b357829003601f168201915b50505050508152602001600582015481526020016006820160009054906101000a900460ff16151515158152602001600782015481526020016008820154815260200160098201805461052290611eab565b80601f016020809104026020016040519081016040528092919081815260200182805461054e90611eab565b801561059b5780601f106105705761010080835404028352916020019161059b565b820191906000526020600020905b81548152906001019060200180831161057e57829003601f168201915b50505050508152602001600a820160009054906101000a900460ff161515151581525050826001836105cd9190611f0b565b815181106105de576105dd611f3f565b5b602002602001018190525080806105f490611f6e565b91505061029b565b508091505090565b61060c6113c3565b60008211801561061e57506000548211155b61065d576040517f08c379a000000000000000000000000000000000000000000000000000000000815260040161065490612002565b60405180910390fd5b6001600083815260200190815260200160002060405180610160016040529081600082015481526020016001820160009054906101000a900473ffffffffffffffffffffffffffffffffffffffff1673ffffffffffffffffffffffffffffffffffffffff1673ffffffffffffffffffffffffffffffffffffffff1681526020016002820180546106ec90611eab565b80601f016020809104026020016040519081016040528092919081815260200182805461071890611eab565b80156107655780601f1061073a57610100808354040283529160200191610765565b820191906000526020600020905b81548152906001019060200180831161074857829003601f168201915b5050505050815260200160038201805461077e90611eab565b80601f01602080910402602001604051908101604052809291908181526020018280546107aa90611eab565b80156107f75780601f106107cc576101008083540402835291602001916107f7565b820191906000526020600020905b8154815290600101906020018083116107da57829003601f168201915b5050505050815260200160048201805461081090611eab565b80601f016020809104026020016040519081016040528092919081815260200182805461083c90611eab565b80156108895780601f1061085e57610100808354040283529160200191610889565b820191906000526020600020905b81548152906001019060200180831161086c57829003601f168201915b50505050508152602001600582015481526020016006820160009054906101000a900460ff1615151515815260200160078201548152602001600882015481526020016009820180546108db90611eab565b80601f016020809104026020016040519081016040528092919081815260200182805461090790611eab565b80156109545780601f1061092957610100808354040283529160200191610954565b820191906000526020600020905b81548152906001019060200180831161093757829003601f168201915b50505050508152602001600a820160009054906101000a900460ff1615151515815250509050919050565b60016020528060005260406000206000915090508060000154908060010160009054906101000a900473ffffffffffffffffffffffffffffffffffffffff16908060020180546109ce90611eab565b80601f01602080910402602001604051908101604052809291908181526020018280546109fa90611eab565b8015610a475780601f10610a1c57610100808354040283529160200191610a47565b820191906000526020600020905b815481529060010190602001808311610a2a57829003601f168201915b505050505090806003018054610a5c90611eab565b80601f0160208091040260200160405190810160405280929190818152602001828054610a8890611eab565b8015610ad55780601f10610aaa57610100808354040283529160200191610ad5565b820191906000526020600020905b815481529060010190602001808311610ab857829003601f168201915b505050505090806004018054610aea90611eab565b80601f0160208091040260200160405190810160405280929190818152602001828054610b1690611eab565b8015610b635780601f10610b3857610100808354040283529160200191610b63565b820191906000526020600020905b815481529060010190602001808311610b4657829003601f168201915b5050505050908060050154908060060160009054906101000a900460ff1690806007015490806008015490806009018054610b9d90611eab565b80601f0160208091040260200160405190810160405280929190818152602001828054610bc990611eab565b8015610c165780601f10610beb57610100808354040283529160200191610c16565b820191906000526020600020905b815481529060010190602001808311610bf957829003601f168201915b50505050509080600a0160009054906101000a900460ff1690508b565b6000600160008b815260200190815260200160002090503373ffffffffffffffffffffffffffffffffffffffff168160010160009054906101000a900473ffffffffffffffffffffffffffffffffffffffff1673ffffffffffffffffffffffffffffffffffffffff1614610cdc576040517f08c379a0000000000000000000000000000000000000000000000000000000008152600401610cd39061206e565b60405180910390fd5b88816002019081610ced919061223a565b5087816003019081610cff919061223a565b5086816004019081610d11919061223a565b50858160050181905550848160060160006101000a81548160ff02191690831515021790555083816007018190555082816008018190555081816009019081610d5a919061223a565b507f866c2d41b4a133b72937235676db3851db10c13a3b636d5bce6de42f90069b158a8a8a8a8a8a8a8a8a604051610d9a9998979695949392919061230c565b60405180910390a150505050505050505050565b600080815480929190610dc090611f6e565b919050555060405180610160016040528060005481526020013373ffffffffffffffffffffffffffffffffffffffff16815260200189815260200188815260200187815260200186815260200185151581526020018481526020018381526020018281526020016001151581525060016000805481526020019081526020016000206000820151816000015560208201518160010160006101000a81548173ffffffffffffffffffffffffffffffffffffffff021916908373ffffffffffffffffffffffffffffffffffffffff1602179055506040820151816002019081610ea8919061223a565b506060820151816003019081610ebe919061223a565b506080820151816004019081610ed4919061223a565b5060a0820151816005015560c08201518160060160006101000a81548160ff02191690831515021790555060e082015181600701556101008201518160080155610120820151816009019081610f2a919061223a565b5061014082015181600a0160006101000a81548160ff0219169083151502179055509050507f2a2fdc31e87af96eb6cd97b0f8cb3dac6f3b568133eb60df077a442998c4f44c600054338a8a8a8a8a8a8a8a604051610f929a999897969594939291906123b5565b60405180910390a15050505050505050565b60005481565b600060016000848152602001908152602001600020905080600a0160009054906101000a900460ff16611012576040517f08c379a0000000000000000000000000000000000000000000000000000000008152600401611009906124b9565b60405180910390fd5b60008211611055576040517f08c379a000000000000000000000000000000000000000000000000000000000815260040161104c90612525565b60405180910390fd5b818160070154101561109c576040517f08c379a000000000000000000000000000000000000000000000000000000000815260040161109390612591565b60405180910390fd5b60008282600801546110ae91906125b1565b90507fbd0faddf87043dd749c1b9d4dca8a12589b8cb5e2106832111ce23f219b1436734826040516110e19291906125f3565b60405180910390a18034101561112c576040517f08c379a000000000000000000000000000000000000000000000000000000000815260040161112390612668565b60405180910390fd5b828260070160008282546111409190611f0b565b925050819055508160010160009054906101000a900473ffffffffffffffffffffffffffffffffffffffff1673ffffffffffffffffffffffffffffffffffffffff166108fc829081150290604051600060405180830381858888f193505050501580156111b1573d6000803e3d6000fd5b508034111561120d573373ffffffffffffffffffffffffffffffffffffffff166108fc82346111e09190611f0b565b9081150290604051600060405180830381858888f1935050505015801561120b573d6000803e3d6000fd5b505b7f0a4352b1d4903ed52cfab309159e5f76ba15237a9c58444bb4b875a873c713f5843385846040516112429493929190612697565b60405180910390a150505050565b60006001600083815260200190815260200160002090503373ffffffffffffffffffffffffffffffffffffffff168160010160009054906101000a900473ffffffffffffffffffffffffffffffffffffffff1673ffffffffffffffffffffffffffffffffffffffff16146112f9576040517f08c379a00000000000000000000000000000000000000000000000000000000081526004016112f09061206e565b60405180910390fd5b80600a0160009054906101000a900460ff1661134a576040517f08c379a000000000000000000000000000000000000000000000000000000000815260040161134190612728565b60405180910390fd5b600081600a0160006101000a81548160ff0219169083151502179055507f58f662e83ed17f55e23546150f0bbe7121c2b63158e49f119899cdfbe0163357826040516113969190611db6565b60405180910390a15050565b60008173ffffffffffffffffffffffffffffffffffffffff16319050919050565b60405180610160016040528060008152602001600073ffffffffffffffffffffffffffffffffffffffff168152602001606081526020016060815260200160608152602001600081526020016000151581526020016000815260200160008152602001606081526020016000151581525090565b600081519050919050565b600082825260208201905092915050565b6000819050602082019050919050565b6000819050919050565b61147681611463565b82525050565b600073ffffffffffffffffffffffffffffffffffffffff82169050919050565b60006114a78261147c565b9050919050565b6114b78161149c565b82525050565b600081519050919050565b600082825260208201905092915050565b60005b838110156114f75780820151818401526020810190506114dc565b60008484015250505050565b6000601f19601f8301169050919050565b600061151f826114bd565b61152981856114c8565b93506115398185602086016114d9565b61154281611503565b840191505092915050565b60008115159050919050565b6115628161154d565b82525050565b600061016083016000830151611581600086018261146d565b50602083015161159460208601826114ae565b50604083015184820360408601526115ac8282611514565b915050606083015184820360608601526115c68282611514565b915050608083015184820360808601526115e08282611514565b91505060a08301516115f560a086018261146d565b5060c083015161160860c0860182611559565b5060e083015161161b60e086018261146d565b5061010083015161163061010086018261146d565b5061012083015184820361012086015261164a8282611514565b915050610140830151611661610140860182611559565b508091505092915050565b60006116788383611568565b905092915050565b6000602082019050919050565b600061169882611437565b6116a28185611442565b9350836020820285016116b485611453565b8060005b858110156116f057848403895281516116d1858261166c565b94506116dc83611680565b925060208a019950506001810190506116b8565b50829750879550505050505092915050565b6000602082019050818103600083015261171c818461168d565b905092915050565b6000604051905090565b600080fd5b600080fd5b61174181611463565b811461174c57600080fd5b50565b60008135905061175e81611738565b92915050565b60006020828403121561177a5761177961172e565b5b60006117888482850161174f565b91505092915050565b6000610160830160008301516117aa600086018261146d565b5060208301516117bd60208601826114ae565b50604083015184820360408601526117d58282611514565b915050606083015184820360608601526117ef8282611514565b915050608083015184820360808601526118098282611514565b91505060a083015161181e60a086018261146d565b5060c083015161183160c0860182611559565b5060e083015161184460e086018261146d565b5061010083015161185961010086018261146d565b506101208301518482036101208601526118738282611514565b91505061014083015161188a610140860182611559565b508091505092915050565b600060208201905081810360008301526118af8184611791565b905092915050565b6118c081611463565b82525050565b6118cf8161149c565b82525050565b600082825260208201905092915050565b60006118f1826114bd565b6118fb81856118d5565b935061190b8185602086016114d9565b61191481611503565b840191505092915050565b6119288161154d565b82525050565b600061016082019050611944600083018e6118b7565b611951602083018d6118c6565b8181036040830152611963818c6118e6565b90508181036060830152611977818b6118e6565b9050818103608083015261198b818a6118e6565b905061199a60a08301896118b7565b6119a760c083018861191f565b6119b460e08301876118b7565b6119c26101008301866118b7565b8181036101208301526119d581856118e6565b90506119e561014083018461191f565b9c9b505050505050505050505050565b600080fd5b600080fd5b7f4e487b7100000000000000000000000000000000000000000000000000000000600052604160045260246000fd5b611a3782611503565b810181811067ffffffffffffffff82111715611a5657611a556119ff565b5b80604052505050565b6000611a69611724565b9050611a758282611a2e565b919050565b600067ffffffffffffffff821115611a9557611a946119ff565b5b611a9e82611503565b9050602081019050919050565b82818337600083830152505050565b6000611acd611ac884611a7a565b611a5f565b905082815260208101848484011115611ae957611ae86119fa565b5b611af4848285611aab565b509392505050565b600082601f830112611b1157611b106119f5565b5b8135611b21848260208601611aba565b91505092915050565b611b338161154d565b8114611b3e57600080fd5b50565b600081359050611b5081611b2a565b92915050565b60008060008060008060008060006101208a8c031215611b7957611b7861172e565b5b6000611b878c828d0161174f565b99505060208a013567ffffffffffffffff811115611ba857611ba7611733565b5b611bb48c828d01611afc565b98505060408a013567ffffffffffffffff811115611bd557611bd4611733565b5b611be18c828d01611afc565b97505060608a013567ffffffffffffffff811115611c0257611c01611733565b5b611c0e8c828d01611afc565b9650506080611c1f8c828d0161174f565b95505060a0611c308c828d01611b41565b94505060c0611c418c828d0161174f565b93505060e0611c528c828d0161174f565b9250506101008a013567ffffffffffffffff811115611c7457611c73611733565b5b611c808c828d01611afc565b9150509295985092959850929598565b600080600080600080600080610100898b031215611cb157611cb061172e565b5b600089013567ffffffffffffffff811115611ccf57611cce611733565b5b611cdb8b828c01611afc565b985050602089013567ffffffffffffffff811115611cfc57611cfb611733565b5b611d088b828c01611afc565b975050604089013567ffffffffffffffff811115611d2957611d28611733565b5b611d358b828c01611afc565b9650506060611d468b828c0161174f565b9550506080611d578b828c01611b41565b94505060a0611d688b828c0161174f565b93505060c0611d798b828c0161174f565b92505060e089013567ffffffffffffffff811115611d9a57611d99611733565b5b611da68b828c01611afc565b9150509295985092959890939650565b6000602082019050611dcb60008301846118b7565b92915050565b60008060408385031215611de857611de761172e565b5b6000611df68582860161174f565b9250506020611e078582860161174f565b9150509250929050565b6000611e1c8261147c565b9050919050565b611e2c81611e11565b8114611e3757600080fd5b50565b600081359050611e4981611e23565b92915050565b600060208284031215611e6557611e6461172e565b5b6000611e7384828501611e3a565b91505092915050565b7f4e487b7100000000000000000000000000000000000000000000000000000000600052602260045260246000fd5b60006002820490506001821680611ec357607f821691505b602082108103611ed657611ed5611e7c565b5b50919050565b7f4e487b7100000000000000000000000000000000000000000000000000000000600052601160045260246000fd5b6000611f1682611463565b9150611f2183611463565b9250828203905081811115611f3957611f38611edc565b5b92915050565b7f4e487b7100000000000000000000000000000000000000000000000000000000600052603260045260246000fd5b6000611f7982611463565b91507fffffffffffffffffffffffffffffffffffffffffffffffffffffffffffffffff8203611fab57611faa611edc565b5b600182019050919050565b7f496e76616c69642063726f702049440000000000000000000000000000000000600082015250565b6000611fec600f836118d5565b9150611ff782611fb6565b602082019050919050565b6000602082019050818103600083015261201b81611fdf565b9050919050565b7f556e617574686f72697a65640000000000000000000000000000000000000000600082015250565b6000612058600c836118d5565b915061206382612022565b602082019050919050565b600060208201905081810360008301526120878161204b565b9050919050565b60008190508160005260206000209050919050565b60006020601f8301049050919050565b600082821b905092915050565b6000600883026120f07fffffffffffffffffffffffffffffffffffffffffffffffffffffffffffffffff826120b3565b6120fa86836120b3565b95508019841693508086168417925050509392505050565b6000819050919050565b600061213761213261212d84611463565b612112565b611463565b9050919050565b6000819050919050565b6121518361211c565b61216561215d8261213e565b8484546120c0565b825550505050565b600090565b61217a61216d565b612185818484612148565b505050565b5b818110156121a95761219e600082612172565b60018101905061218b565b5050565b601f8211156121ee576121bf8161208e565b6121c8846120a3565b810160208510156121d7578190505b6121eb6121e3856120a3565b83018261218a565b50505b505050565b600082821c905092915050565b6000612211600019846008026121f3565b1980831691505092915050565b600061222a8383612200565b9150826002028217905092915050565b612243826114bd565b67ffffffffffffffff81111561225c5761225b6119ff565b5b6122668254611eab565b6122718282856121ad565b600060209050601f8311600181146122a45760008415612292578287015190505b61229c858261221e565b865550612304565b601f1984166122b28661208e565b60005b828110156122da578489015182556001820191506020850194506020810190506122b5565b868310156122f757848901516122f3601f891682612200565b8355505b6001600288020188555050505b505050505050565b600061012082019050612322600083018c6118b7565b8181036020830152612334818b6118e6565b90508181036040830152612348818a6118e6565b9050818103606083015261235c81896118e6565b905061236b60808301886118b7565b61237860a083018761191f565b61238560c08301866118b7565b61239260e08301856118b7565b8181036101008301526123a581846118e6565b90509a9950505050505050505050565b6000610140820190506123cb600083018d6118b7565b6123d8602083018c6118c6565b81810360408301526123ea818b6118e6565b905081810360608301526123fe818a6118e6565b9050818103608083015261241281896118e6565b905061242160a08301886118b7565b61242e60c083018761191f565b61243b60e08301866118b7565b6124496101008301856118b7565b81810361012083015261245c81846118e6565b90509b9a5050505050505050505050565b7f43726f70206973206e6f74206c69737465640000000000000000000000000000600082015250565b60006124a36012836118d5565b91506124ae8261246d565b602082019050919050565b600060208201905081810360008301526124d281612496565b9050919050565b7f496e76616c6964207175616e7469747900000000000000000000000000000000600082015250565b600061250f6010836118d5565b915061251a826124d9565b602082019050919050565b6000602082019050818103600083015261253e81612502565b9050919050565b7f4e6f7420656e6f756768207175616e7469747920617661696c61626c65000000600082015250565b600061257b601d836118d5565b915061258682612545565b602082019050919050565b600060208201905081810360008301526125aa8161256e565b9050919050565b60006125bc82611463565b91506125c783611463565b92508282026125d581611463565b915082820484148315176125ec576125eb611edc565b5b5092915050565b600060408201905061260860008301856118b7565b61261560208301846118b7565b9392505050565b7f496e73756666696369656e74204554482073656e740000000000000000000000600082015250565b60006126526015836118d5565b915061265d8261261c565b602082019050919050565b6000602082019050818103600083015261268181612645565b9050919050565b61269181611e11565b82525050565b60006080820190506126ac60008301876118b7565b6126b96020830186612688565b6126c660408301856118b7565b6126d360608301846118b7565b95945050505050565b7f416c72656164792064656c697374656400000000000000000000000000000000600082015250565b60006127126010836118d5565b915061271d826126dc565b602082019050919050565b6000602082019050818103600083015261274181612705565b905091905056fea2646970667358221220e298be28af9570f04749aee59b90dfa51800df507c94ef8983fdedc450c3ced064736f6c63430008110033","opcodes":"PUSH1 0x80 PUSH1 0x40 MSTORE CALLVALUE DUP1 ISZERO PUSH2 0x10 JUMPI PUSH1 0x0 DUP1 REVERT JUMPDEST POP PUSH2 0x277E DUP1 PUSH2 0x20 PUSH1 0x0 CODECOPY PUSH1 0x0 RETURN INVALID PUSH1 0x80 PUSH1 0x40 MSTORE PUSH1 0x4 CALLDATASIZE LT PUSH2 0x86 JUMPI PUSH1 0x0 CALLDATALOAD PUSH1 0xE0 SHR DUP1 PUSH4 0x8CBEB8F6 GT PUSH2 0x59 JUMPI DUP1 PUSH4 0x8CBEB8F6 EQ PUSH2 0x163 JUMPI DUP1 PUSH4 0x9385882A EQ PUSH2 0x18C JUMPI DUP1 PUSH4 0xA086DD88 EQ PUSH2 0x1B7 JUMPI DUP1 PUSH4 0xE9B88958 EQ PUSH2 0x1D3 JUMPI DUP1 PUSH4 0xF8B2CB4F EQ PUSH2 0x1FC JUMPI PUSH2 0x86 JUMP JUMPDEST DUP1 PUSH4 0x1D48DC90 EQ PUSH2 0x8B JUMPI DUP1 PUSH4 0x2A674AA8 EQ PUSH2 0xB6 JUMPI DUP1 PUSH4 0x70C9F1A5 EQ PUSH2 0xF3 JUMPI DUP1 PUSH4 0x89C3C3C4 EQ PUSH2 0x13A JUMPI JUMPDEST PUSH1 0x0 DUP1 REVERT JUMPDEST CALLVALUE DUP1 ISZERO PUSH2 0x97 JUMPI PUSH1 0x0 DUP1 REVERT JUMPDEST POP PUSH2 0xA0 PUSH2 0x239 JUMP JUMPDEST PUSH1 0x40 MLOAD PUSH2 0xAD SWAP2 SWAP1 PUSH2 0x1702 JUMP JUMPDEST PUSH1 0x40 MLOAD DUP1 SWAP2 SUB SWAP1 RETURN JUMPDEST CALLVALUE DUP1 ISZERO PUSH2 0xC2 JUMPI PUSH1 0x0 DUP1 REVERT JUMPDEST POP PUSH2 0xDD PUSH1 0x4 DUP1 CALLDATASIZE SUB DUP2 ADD SWAP1 PUSH2 0xD8 SWAP2 SWAP1 PUSH2 0x1764 JUMP JUMPDEST PUSH2 0x604 JUMP JUMPDEST PUSH1 0x40 MLOAD PUSH2 0xEA SWAP2 SWAP1 PUSH2 0x1895 JUMP JUMPDEST PUSH1 0x40 MLOAD DUP1 SWAP2 SUB SWAP1 RETURN JUMPDEST CALLVALUE DUP1 ISZERO PUSH2 0xFF JUMPI PUSH1 0x0 DUP1 REVERT JUMPDEST POP PUSH2 0x11A PUSH1 0x4 DUP1 CALLDATASIZE SUB DUP2 ADD SWAP1 PUSH2 0x115 SWAP2 SWAP1 PUSH2 0x1764 JUMP JUMPDEST PUSH2 0x97F JUMP JUMPDEST PUSH1 0x40 MLOAD PUSH2 0x131 SWAP12 SWAP11 SWAP10 SWAP9 SWAP8 SWAP7 SWAP6 SWAP5 SWAP4 SWAP3 SWAP2 SWAP1 PUSH2 0x192E JUMP JUMPDEST PUSH1 0x40 MLOAD DUP1 SWAP2 SUB SWAP1 RETURN JUMPDEST CALLVALUE DUP1 ISZERO PUSH2 0x146 JUMPI PUSH1 0x0 DUP1 REVERT JUMPDEST POP PUSH2 0x161 PUSH1 0x4 DUP1 CALLDATASIZE SUB DUP2 ADD SWAP1 PUSH2 0x15C SWAP2 SWAP1 PUSH2 0x1B56 JUMP JUMPDEST PUSH2 0xC33 JUMP JUMPDEST STOP JUMPDEST CALLVALUE DUP1 ISZERO PUSH2 0x16F JUMPI PUSH1 0x0 DUP1 REVERT JUMPDEST POP PUSH2 0x18A PUSH1 0x4 DUP1 CALLDATASIZE SUB DUP2 ADD SWAP1 PUSH2 0x185 SWAP2 SWAP1 PUSH2 0x1C90 JUMP JUMPDEST PUSH2 0xDAE JUMP JUMPDEST STOP JUMPDEST CALLVALUE DUP1 ISZERO PUSH2 0x198 JUMPI PUSH1 0x0 DUP1 REVERT JUMPDEST POP PUSH2 0x1A1 PUSH2 0xFA4 JUMP JUMPDEST PUSH1 0x40 MLOAD PUSH2 0x1AE SWAP2 SWAP1 PUSH2 0x1DB6 JUMP JUMPDEST PUSH1 0x40 MLOAD DUP1 SWAP2 SUB SWAP1 RETURN JUMPDEST PUSH2 0x1D1 PUSH1 0x4 DUP1 CALLDATASIZE SUB DUP2 ADD SWAP1 PUSH2 0x1CC SWAP2 SWAP1 PUSH2 0x1DD1 JUMP JUMPDEST PUSH2 0xFAA JUMP JUMPDEST STOP JUMPDEST CALLVALUE DUP1 ISZERO PUSH2 0x1DF JUMPI PUSH1 0x0 DUP1 REVERT JUMPDEST POP PUSH2 0x1FA PUSH1 0x4 DUP1 CALLDATASIZE SUB DUP2 ADD SWAP1 PUSH2 0x1F5 SWAP2 SWAP1 PUSH2 0x1764 JUMP JUMPDEST PUSH2 0x1250 JUMP JUMPDEST STOP JUMPDEST CALLVALUE DUP1 ISZERO PUSH2 0x208 JUMPI PUSH1 0x0 DUP1 REVERT JUMPDEST POP PUSH2 0x223 PUSH1 0x4 DUP1 CALLDATASIZE SUB DUP2 ADD SWAP1 PUSH2 0x21E SWAP2 SWAP1 PUSH2 0x1E4F JUMP JUMPDEST PUSH2 0x13A2 JUMP JUMPDEST PUSH1 0x40 MLOAD PUSH2 0x230 SWAP2 SWAP1 PUSH2 0x1DB6 JUMP JUMPDEST PUSH1 0x40 MLOAD DUP1 SWAP2 SUB SWAP1 RETURN JUMPDEST PUSH1 0x60 PUSH1 0x0 DUP1 SLOAD PUSH8 0xFFFFFFFFFFFFFFFF DUP2 GT ISZERO PUSH2 0x258 JUMPI PUSH2 0x257 PUSH2 0x19FF JUMP JUMPDEST JUMPDEST PUSH1 0x40 MLOAD SWAP1 DUP1 DUP3 MSTORE DUP1 PUSH1 0x20 MUL PUSH1 0x20 ADD DUP3 ADD PUSH1 0x40 MSTORE DUP1 ISZERO PUSH2 0x291 JUMPI DUP2 PUSH1 0x20 ADD JUMPDEST PUSH2 0x27E PUSH2 0x13C3 JUMP JUMPDEST DUP2 MSTORE PUSH1 0x20 ADD SWAP1 PUSH1 0x1 SWAP1 SUB SWAP1 DUP2 PUSH2 0x276 JUMPI SWAP1 POP JUMPDEST POP SWAP1 POP PUSH1 0x0 PUSH1 0x1 SWAP1 POP JUMPDEST PUSH1 0x0 SLOAD DUP2 GT PUSH2 0x5FC JUMPI PUSH1 0x1 PUSH1 0x0 DUP3 DUP2 MSTORE PUSH1 0x20 ADD SWAP1 DUP2 MSTORE PUSH1 0x20 ADD PUSH1 0x0 KECCAK256 PUSH1 0x40 MLOAD DUP1 PUSH2 0x160 ADD PUSH1 0x40 MSTORE SWAP1 DUP2 PUSH1 0x0 DUP3 ADD SLOAD DUP2 MSTORE PUSH1 0x20 ADD PUSH1 0x1 DUP3 ADD PUSH1 0x0 SWAP1 SLOAD SWAP1 PUSH2 0x100 EXP SWAP1 DIV PUSH20 0xFFFFFFFFFFFFFFFFFFFFFFFFFFFFFFFFFFFFFFFF AND PUSH20 0xFFFFFFFFFFFFFFFFFFFFFFFFFFFFFFFFFFFFFFFF AND PUSH20 0xFFFFFFFFFFFFFFFFFFFFFFFFFFFFFFFFFFFFFFFF AND DUP2 MSTORE PUSH1 0x20 ADD PUSH1 0x2 DUP3 ADD DUP1 SLOAD PUSH2 0x333 SWAP1 PUSH2 0x1EAB JUMP JUMPDEST DUP1 PUSH1 0x1F ADD PUSH1 0x20 DUP1 SWAP2 DIV MUL PUSH1 0x20 ADD PUSH1 0x40 MLOAD SWAP1 DUP2 ADD PUSH1 0x40 MSTORE DUP1 SWAP3 SWAP2 SWAP1 DUP2 DUP2 MSTORE PUSH1 0x20 ADD DUP3 DUP1 SLOAD PUSH2 0x35F SWAP1 PUSH2 0x1EAB JUMP JUMPDEST DUP1 ISZERO PUSH2 0x3AC JUMPI DUP1 PUSH1 0x1F LT PUSH2 0x381 JUMPI PUSH2 0x100 DUP1 DUP4 SLOAD DIV MUL DUP4 MSTORE SWAP2 PUSH1 0x20 ADD SWAP2 PUSH2 0x3AC JUMP JUMPDEST DUP3 ADD SWAP2 SWAP1 PUSH1 0x0 MSTORE PUSH1 0x20 PUSH1 0x0 KECCAK256 SWAP1 JUMPDEST DUP2 SLOAD DUP2 MSTORE SWAP1 PUSH1 0x1 ADD SWAP1 PUSH1 0x20 ADD DUP1 DUP4 GT PUSH2 0x38F JUMPI DUP3 SWAP1 SUB PUSH1 0x1F AND DUP3 ADD SWAP2 JUMPDEST POP POP POP POP POP DUP2 MSTORE PUSH1 0x20 ADD PUSH1 0x3 DUP3 ADD DUP1 SLOAD PUSH2 0x3C5 SWAP1 PUSH2 0x1EAB JUMP JUMPDEST DUP1 PUSH1 0x1F ADD PUSH1 0x20 DUP1 SWAP2 DIV MUL PUSH1 0x20 ADD PUSH1 0x40 MLOAD SWAP1 DUP2 ADD PUSH1 0x40 MSTORE DUP1 SWAP3 SWAP2 SWAP1 DUP2 DUP2 MSTORE PUSH1 0x20 ADD DUP3 DUP1 SLOAD PUSH2 0x3F1 SWAP1 PUSH2 0x1EAB JUMP JUMPDEST DUP1 ISZERO PUSH2 0x43E JUMPI DUP1 PUSH1 0x1F LT PUSH2 0x413 JUMPI PUSH2 0x100 DUP1 DUP4 SLOAD DIV MUL DUP4 MSTORE SWAP2 PUSH1 0x20 ADD SWAP2 PUSH2 0x43E JUMP JUMPDEST DUP3 ADD SWAP2 SWAP1 PUSH1 0x0 MSTORE PUSH1 0x20 PUSH1 0x0 KECCAK256 SWAP1 JUMPDEST DUP2 SLOAD DUP2 MSTORE SWAP1 PUSH1 0x1 ADD SWAP1 PUSH1 0x20 ADD DUP1 DUP4 GT PUSH2 0x421 JUMPI DUP3 SWAP1 SUB PUSH1 0x1F AND DUP3 ADD SWAP2 JUMPDEST POP POP POP POP POP DUP2 MSTORE PUSH1 0x20 ADD PUSH1 0x4 DUP3 ADD DUP1 SLOAD PUSH2 0x457 SWAP1 PUSH2 0x1EAB JUMP JUMPDEST DUP1 PUSH1 0x1F ADD PUSH1 0x20 DUP1 SWAP2 DIV MUL PUSH1 0x20 ADD PUSH1 0x40 MLOAD SWAP1 DUP2 ADD PUSH1 0x40 MSTORE DUP1 SWAP3 SWAP2 SWAP1 DUP2 DUP2 MSTORE PUSH1 0x20 ADD DUP3 DUP1 SLOAD PUSH2 0x483 SWAP1 PUSH2 0x1EAB JUMP JUMPDEST DUP1 ISZERO PUSH2 0x4D0 JUMPI DUP1 PUSH1 0x1F LT PUSH2 0x4A5 JUMPI PUSH2 0x100 DUP1 DUP4 SLOAD DIV MUL DUP4 MSTORE SWAP2 PUSH1 0x20 ADD SWAP2 PUSH2 0x4D0 JUMP JUMPDEST DUP3 ADD SWAP2 SWAP1 PUSH1 0x0 MSTORE PUSH1 0x20 PUSH1 0x0 KECCAK256 SWAP1 JUMPDEST DUP2 SLOAD DUP2 MSTORE SWAP1 PUSH1 0x1 ADD SWAP1 PUSH1 0x20 ADD DUP1 DUP4 GT PUSH2 0x4B3 JUMPI DUP3 SWAP1 SUB PUSH1 0x1F AND DUP3 ADD SWAP2 JUMPDEST POP POP POP POP POP DUP2 MSTORE PUSH1 0x20 ADD PUSH1 0x5 DUP3 ADD SLOAD DUP2 MSTORE PUSH1 0x20 ADD PUSH1 0x6 DUP3 ADD PUSH1 0x0 SWAP1 SLOAD SWAP1 PUSH2 0x100 EXP SWAP1 DIV PUSH1 0xFF AND ISZERO ISZERO ISZERO ISZERO DUP2 MSTORE PUSH1 0x20 ADD PUSH1 0x7 DUP3 ADD SLOAD DUP2 MSTORE PUSH1 0x20 ADD PUSH1 0x8 DUP3 ADD SLOAD DUP2 MSTORE PUSH1 0x20 ADD PUSH1 0x9 DUP3 ADD DUP1 SLOAD PUSH2 0x522 SWAP1 PUSH2 0x1EAB JUMP JUMPDEST DUP1 PUSH1 0x1F ADD PUSH1 0x20 DUP1 SWAP2 DIV MUL PUSH1 0x20 ADD PUSH1 0x40 MLOAD SWAP1 DUP2 ADD PUSH1 0x40 MSTORE DUP1 SWAP3 SWAP2 SWAP1 DUP2 DUP2 MSTORE PUSH1 0x20 ADD DUP3 DUP1 SLOAD PUSH2 0x54E SWAP1 PUSH2 0x1EAB JUMP JUMPDEST DUP1 ISZERO PUSH2 0x59B JUMPI DUP1 PUSH1 0x1F LT PUSH2 0x570 JUMPI PUSH2 0x100 DUP1 DUP4 SLOAD DIV MUL DUP4 MSTORE SWAP2 PUSH1 0x20 ADD SWAP2 PUSH2 0x59B JUMP JUMPDEST DUP3 ADD SWAP2 SWAP1 PUSH1 0x0 MSTORE PUSH1 0x20 PUSH1 0x0 KECCAK256 SWAP1 JUMPDEST DUP2 SLOAD DUP2 MSTORE SWAP1 PUSH1 0x1 ADD SWAP1 PUSH1 0x20 ADD DUP1 DUP4 GT PUSH2 0x57E JUMPI DUP3 SWAP1 SUB PUSH1 0x1F AND DUP3 ADD SWAP2 JUMPDEST POP POP POP POP POP DUP2 MSTORE PUSH1 0x20 ADD PUSH1 0xA DUP3 ADD PUSH1 0x0 SWAP1 SLOAD SWAP1 PUSH2 0x100 EXP SWAP1 DIV PUSH1 0xFF AND ISZERO ISZERO ISZERO ISZERO DUP2 MSTORE POP POP DUP3 PUSH1 0x1 DUP4 PUSH2 0x5CD SWAP2 SWAP1 PUSH2 0x1F0B JUMP JUMPDEST DUP2 MLOAD DUP2 LT PUSH2 0x5DE JUMPI PUSH2 0x5DD PUSH2 0x1F3F JUMP JUMPDEST JUMPDEST PUSH1 0x20 MUL PUSH1 0x20 ADD ADD DUP2 SWAP1 MSTORE POP DUP1 DUP1 PUSH2 0x5F4 SWAP1 PUSH2 0x1F6E JUMP JUMPDEST SWAP2 POP POP PUSH2 0x29B JUMP JUMPDEST POP DUP1 SWAP2 POP POP SWAP1 JUMP JUMPDEST PUSH2 0x60C PUSH2 0x13C3 JUMP JUMPDEST PUSH1 0x0 DUP3 GT DUP1 ISZERO PUSH2 0x61E JUMPI POP PUSH1 0x0 SLOAD DUP3 GT ISZERO JUMPDEST PUSH2 0x65D JUMPI PUSH1 0x40 MLOAD PUSH32 0x8C379A000000000000000000000000000000000000000000000000000000000 DUP2 MSTORE PUSH1 0x4 ADD PUSH2 0x654 SWAP1 PUSH2 0x2002 JUMP JUMPDEST PUSH1 0x40 MLOAD DUP1 SWAP2 SUB SWAP1 REVERT JUMPDEST PUSH1 0x1 PUSH1 0x0 DUP4 DUP2 MSTORE PUSH1 0x20 ADD SWAP1 DUP2 MSTORE PUSH1 0x20 ADD PUSH1 0x0 KECCAK256 PUSH1 0x40 MLOAD DUP1 PUSH2 0x160 ADD PUSH1 0x40 MSTORE SWAP1 DUP2 PUSH1 0x0 DUP3 ADD SLOAD DUP2 MSTORE PUSH1 0x20 ADD PUSH1 0x1 DUP3 ADD PUSH1 0x0 SWAP1 SLOAD SWAP1 PUSH2 0x100 EXP SWAP1 DIV PUSH20 0xFFFFFFFFFFFFFFFFFFFFFFFFFFFFFFFFFFFFFFFF AND PUSH20 0xFFFFFFFFFFFFFFFFFFFFFFFFFFFFFFFFFFFFFFFF AND PUSH20 0xFFFFFFFFFFFFFFFFFFFFFFFFFFFFFFFFFFFFFFFF AND DUP2 MSTORE PUSH1 0x20 ADD PUSH1 0x2 DUP3 ADD DUP1 SLOAD PUSH2 0x6EC SWAP1 PUSH2 0x1EAB JUMP JUMPDEST DUP1 PUSH1 0x1F ADD PUSH1 0x20 DUP1 SWAP2 DIV MUL PUSH1 0x20 ADD PUSH1 0x40 MLOAD SWAP1 DUP2 ADD PUSH1 0x40 MSTORE DUP1 SWAP3 SWAP2 SWAP1 DUP2 DUP2 MSTORE PUSH1 0x20 ADD DUP3 DUP1 SLOAD PUSH2 0x718 SWAP1 PUSH2 0x1EAB JUMP JUMPDEST DUP1 ISZERO PUSH2 0x765 JUMPI DUP1 PUSH1 0x1F LT PUSH2 0x73A JUMPI PUSH2 0x100 DUP1 DUP4 SLOAD DIV MUL DUP4 MSTORE SWAP2 PUSH1 0x20 ADD SWAP2 PUSH2 0x765 JUMP JUMPDEST DUP3 ADD SWAP2 SWAP1 PUSH1 0x0 MSTORE PUSH1 0x20 PUSH1 0x0 KECCAK256 SWAP1 JUMPDEST DUP2 SLOAD DUP2 MSTORE SWAP1 PUSH1 0x1 ADD SWAP1 PUSH1 0x20 ADD DUP1 DUP4 GT PUSH2 0x748 JUMPI DUP3 SWAP1 SUB PUSH1 0x1F AND DUP3 ADD SWAP2 JUMPDEST POP POP POP POP POP DUP2 MSTORE PUSH1 0x20 ADD PUSH1 0x3 DUP3 ADD DUP1 SLOAD PUSH2 0x77E SWAP1 PUSH2 0x1EAB JUMP JUMPDEST DUP1 PUSH1 0x1F ADD PUSH1 0x20 DUP1 SWAP2 DIV MUL PUSH1 0x20 ADD PUSH1 0x40 MLOAD SWAP1 DUP2 ADD PUSH1 0x40 MSTORE DUP1 SWAP3 SWAP2 SWAP1 DUP2 DUP2 MSTORE PUSH1 0x20 ADD DUP3 DUP1 SLOAD PUSH2 0x7AA SWAP1 PUSH2 0x1EAB JUMP JUMPDEST DUP1 ISZERO PUSH2 0x7F7 JUMPI DUP1 PUSH1 0x1F LT PUSH2 0x7CC JUMPI PUSH2 0x100 DUP1 DUP4 SLOAD DIV MUL DUP4 MSTORE SWAP2 PUSH1 0x20 ADD SWAP2 PUSH2 0x7F7 JUMP JUMPDEST DUP3 ADD SWAP2 SWAP1 PUSH1 0x0 MSTORE PUSH1 0x20 PUSH1 0x0 KECCAK256 SWAP1 JUMPDEST DUP2 SLOAD DUP2 MSTORE SWAP1 PUSH1 0x1 ADD SWAP1 PUSH1 0x20 ADD DUP1 DUP4 GT PUSH2 0x7DA JUMPI DUP3 SWAP1 SUB PUSH1 0x1F AND DUP3 ADD SWAP2 JUMPDEST POP POP POP POP POP DUP2 MSTORE PUSH1 0x20 ADD PUSH1 0x4 DUP3 ADD DUP1 SLOAD PUSH2 0x810 SWAP1 PUSH2 0x1EAB JUMP JUMPDEST DUP1 PUSH1 0x1F ADD PUSH1 0x20 DUP1 SWAP2 DIV MUL PUSH1 0x20 ADD PUSH1 0x40 MLOAD SWAP1 DUP2 ADD PUSH1 0x40 MSTORE DUP1 SWAP3 SWAP2 SWAP1 DUP2 DUP2 MSTORE PUSH1 0x20 ADD DUP3 DUP1 SLOAD PUSH2 0x83C SWAP1 PUSH2 0x1EAB JUMP JUMPDEST DUP1 ISZERO PUSH2 0x889 JUMPI DUP1 PUSH1 0x1F LT PUSH2 0x85E JUMPI PUSH2 0x100 DUP1 DUP4 SLOAD DIV MUL DUP4 MSTORE SWAP2 PUSH1 0x20 ADD SWAP2 PUSH2 0x889 JUMP JUMPDEST DUP3 ADD SWAP2 SWAP1 PUSH1 0x0 MSTORE PUSH1 0x20 PUSH1 0x0 KECCAK256 SWAP1 JUMPDEST DUP2 SLOAD DUP2 MSTORE SWAP1 PUSH1 0x1 ADD SWAP1 PUSH1 0x20 ADD DUP1 DUP4 GT PUSH2 0x86C JUMPI DUP3 SWAP1 SUB PUSH1 0x1F AND DUP3 ADD SWAP2 JUMPDEST POP POP POP POP POP DUP2 MSTORE PUSH1 0x20 ADD PUSH1 0x5 DUP3 ADD SLOAD DUP2 MSTORE PUSH1 0x20 ADD PUSH1 0x6 DUP3 ADD PUSH1 0x0 SWAP1 SLOAD SWAP1 PUSH2 0x100 EXP SWAP1 DIV PUSH1 0xFF AND ISZERO ISZERO ISZERO ISZERO DUP2 MSTORE PUSH1 0x20 ADD PUSH1 0x7 DUP3 ADD SLOAD DUP2 MSTORE PUSH1 0x20 ADD PUSH1 0x8 DUP3 ADD SLOAD DUP2 MSTORE PUSH1 0x20 ADD PUSH1 0x9 DUP3 ADD DUP1 SLOAD PUSH2 0x8DB SWAP1 PUSH2 0x1EAB JUMP JUMPDEST DUP1 PUSH1 0x1F ADD PUSH1 0x20 DUP1 SWAP2 DIV MUL PUSH1 0x20 ADD PUSH1 0x40 MLOAD SWAP1 DUP2 ADD PUSH1 0x40 MSTORE DUP1 SWAP3 SWAP2 SWAP1 DUP2 DUP2 MSTORE PUSH1 0x20 ADD DUP3 DUP1 SLOAD PUSH2 0x907 SWAP1 PUSH2 0x1EAB JUMP JUMPDEST DUP1 ISZERO PUSH2 0x954 JUMPI DUP1 PUSH1 0x1F LT PUSH2 0x929 JUMPI PUSH2 0x100 DUP1 DUP4 SLOAD DIV MUL DUP4 MSTORE SWAP2 PUSH1 0x20 ADD SWAP2 PUSH2 0x954 JUMP JUMPDEST DUP3 ADD SWAP2 SWAP1 PUSH1 0x0 MSTORE PUSH1 0x20 PUSH1 0x0 KECCAK256 SWAP1 JUMPDEST DUP2 SLOAD DUP2 MSTORE SWAP1 PUSH1 0x1 ADD SWAP1 PUSH1 0x20 ADD DUP1 DUP4 GT PUSH2 0x937 JUMPI DUP3 SWAP1 SUB PUSH1 0x1F AND DUP3 ADD SWAP2 JUMPDEST POP POP POP POP POP DUP2 MSTORE PUSH1 0x20 ADD PUSH1 0xA DUP3 ADD PUSH1 0x0 SWAP1 SLOAD SWAP1 PUSH2 0x100 EXP SWAP1 DIV PUSH1 0xFF AND ISZERO ISZERO ISZERO ISZERO DUP2 MSTORE POP POP SWAP1 POP SWAP2 SWAP1 POP JUMP JUMPDEST PUSH1 0x1 PUSH1 0x20 MSTORE DUP1 PUSH1 0x0 MSTORE PUSH1 0x40 PUSH1 0x0 KECCAK256 PUSH1 0x0 SWAP2 POP SWAP1 POP DUP1 PUSH1 0x0 ADD SLOAD SWAP1 DUP1 PUSH1 0x1 ADD PUSH1 0x0 SWAP1 SLOAD SWAP1 PUSH2 0x100 EXP SWAP1 DIV PUSH20 0xFFFFFFFFFFFFFFFFFFFFFFFFFFFFFFFFFFFFFFFF AND SWAP1 DUP1 PUSH1 0x2 ADD DUP1 SLOAD PUSH2 0x9CE SWAP1 PUSH2 0x1EAB JUMP JUMPDEST DUP1 PUSH1 0x1F ADD PUSH1 0x20 DUP1 SWAP2 DIV MUL PUSH1 0x20 ADD PUSH1 0x40 MLOAD SWAP1 DUP2 ADD PUSH1 0x40 MSTORE DUP1 SWAP3 SWAP2 SWAP1 DUP2 DUP2 MSTORE PUSH1 0x20 ADD DUP3 DUP1 SLOAD PUSH2 0x9FA SWAP1 PUSH2 0x1EAB JUMP JUMPDEST DUP1 ISZERO PUSH2 0xA47 JUMPI DUP1 PUSH1 0x1F LT PUSH2 0xA1C JUMPI PUSH2 0x100 DUP1 DUP4 SLOAD DIV MUL DUP4 MSTORE SWAP2 PUSH1 0x20 ADD SWAP2 PUSH2 0xA47 JUMP JUMPDEST DUP3 ADD SWAP2 SWAP1 PUSH1 0x0 MSTORE PUSH1 0x20 PUSH1 0x0 KECCAK256 SWAP1 JUMPDEST DUP2 SLOAD DUP2 MSTORE SWAP1 PUSH1 0x1 ADD SWAP1 PUSH1 0x20 ADD DUP1 DUP4 GT PUSH2 0xA2A JUMPI DUP3 SWAP1 SUB PUSH1 0x1F AND DUP3 ADD SWAP2 JUMPDEST POP POP POP POP POP SWAP1 DUP1 PUSH1 0x3 ADD DUP1 SLOAD PUSH2 0xA5C SWAP1 PUSH2 0x1EAB JUMP JUMPDEST DUP1 PUSH1 0x1F ADD PUSH1 0x20 DUP1 SWAP2 DIV MUL PUSH1 0x20 ADD PUSH1 0x40 MLOAD SWAP1 DUP2 ADD PUSH1 0x40 MSTORE DUP1 SWAP3 SWAP2 SWAP1 DUP2 DUP2 MSTORE PUSH1 0x20 ADD DUP3 DUP1 SLOAD PUSH2 0xA88 SWAP1 PUSH2 0x1EAB JUMP JUMPDEST DUP1 ISZERO PUSH2 0xAD5 JUMPI DUP1 PUSH1 0x1F LT PUSH2 0xAAA JUMPI PUSH2 0x100 DUP1 DUP4 SLOAD DIV MUL DUP4 MSTORE SWAP2 PUSH1 0x20 ADD SWAP2 PUSH2 0xAD5 JUMP JUMPDEST DUP3 ADD SWAP2 SWAP1 PUSH1 0x0 MSTORE PUSH1 0x20 PUSH1 0x0 KECCAK256 SWAP1 JUMPDEST DUP2 SLOAD DUP2 MSTORE SWAP1 PUSH1 0x1 ADD SWAP1 PUSH1 0x20 ADD DUP1 DUP4 GT PUSH2 0xAB8 JUMPI DUP3 SWAP1 SUB PUSH1 0x1F AND DUP3 ADD SWAP2 JUMPDEST POP POP POP POP POP SWAP1 DUP1 PUSH1 0x4 ADD DUP1 SLOAD PUSH2 0xAEA SWAP1 PUSH2 0x1EAB JUMP JUMPDEST DUP1 PUSH1 0x1F ADD PUSH1 0x20 DUP1 SWAP2 DIV MUL PUSH1 0x20 ADD PUSH1 0x40 MLOAD SWAP1 DUP2 ADD PUSH1 0x40 MSTORE DUP1 SWAP3 SWAP2 SWAP1 DUP2 DUP2 MSTORE PUSH1 0x20 ADD DUP3 DUP1 SLOAD PUSH2 0xB16 SWAP1 PUSH2 0x1EAB JUMP JUMPDEST DUP1 ISZERO PUSH2 0xB63 JUMPI DUP1 PUSH1 0x1F LT PUSH2 0xB38 JUMPI PUSH2 0x100 DUP1 DUP4 SLOAD DIV MUL DUP4 MSTORE SWAP2 PUSH1 0x20 ADD SWAP2 PUSH2 0xB63 JUMP JUMPDEST DUP3 ADD SWAP2 SWAP1 PUSH1 0x0 MSTORE PUSH1 0x20 PUSH1 0x0 KECCAK256 SWAP1 JUMPDEST DUP2 SLOAD DUP2 MSTORE SWAP1 PUSH1 0x1 ADD SWAP1 PUSH1 0x20 ADD DUP1 DUP4 GT PUSH2 0xB46 JUMPI DUP3 SWAP1 SUB PUSH1 0x1F AND DUP3 ADD SWAP2 JUMPDEST POP POP POP POP POP SWAP1 DUP1 PUSH1 0x5 ADD SLOAD SWAP1 DUP1 PUSH1 0x6 ADD PUSH1 0x0 SWAP1 SLOAD SWAP1 PUSH2 0x100 EXP SWAP1 DIV PUSH1 0xFF AND SWAP1 DUP1 PUSH1 0x7 ADD SLOAD SWAP1 DUP1 PUSH1 0x8 ADD SLOAD SWAP1 DUP1 PUSH1 0x9 ADD DUP1 SLOAD PUSH2 0xB9D SWAP1 PUSH2 0x1EAB JUMP JUMPDEST DUP1 PUSH1 0x1F ADD PUSH1 0x20 DUP1 SWAP2 DIV MUL PUSH1 0x20 ADD PUSH1 0x40 MLOAD SWAP1 DUP2 ADD PUSH1 0x40 MSTORE DUP1 SWAP3 SWAP2 SWAP1 DUP2 DUP2 MSTORE PUSH1 0x20 ADD DUP3 DUP1 SLOAD PUSH2 0xBC9 SWAP1 PUSH2 0x1EAB JUMP JUMPDEST DUP1 ISZERO PUSH2 0xC16 JUMPI DUP1 PUSH1 0x1F LT PUSH2 0xBEB JUMPI PUSH2 0x100 DUP1 DUP4 SLOAD DIV MUL DUP4 MSTORE SWAP2 PUSH1 0x20 ADD SWAP2 PUSH2 0xC16 JUMP JUMPDEST DUP3 ADD SWAP2 SWAP1 PUSH1 0x0 MSTORE PUSH1 0x20 PUSH1 0x0 KECCAK256 SWAP1 JUMPDEST DUP2 SLOAD DUP2 MSTORE SWAP1 PUSH1 0x1 ADD SWAP1 PUSH1 0x20 ADD DUP1 DUP4 GT PUSH2 0xBF9 JUMPI DUP3 SWAP1 SUB PUSH1 0x1F AND DUP3 ADD SWAP2 JUMPDEST POP POP POP POP POP SWAP1 DUP1 PUSH1 0xA ADD PUSH1 0x0 SWAP1 SLOAD SWAP1 PUSH2 0x100 EXP SWAP1 DIV PUSH1 0xFF AND SWAP1 POP DUP12 JUMP JUMPDEST PUSH1 0x0 PUSH1 0x1 PUSH1 0x0 DUP12 DUP2 MSTORE PUSH1 0x20 ADD SWAP1 DUP2 MSTORE PUSH1 0x20 ADD PUSH1 0x0 KECCAK256 SWAP1 POP CALLER PUSH20 0xFFFFFFFFFFFFFFFFFFFFFFFFFFFFFFFFFFFFFFFF AND DUP2 PUSH1 0x1 ADD PUSH1 0x0 SWAP1 SLOAD SWAP1 PUSH2 0x100 EXP SWAP1 DIV PUSH20 0xFFFFFFFFFFFFFFFFFFFFFFFFFFFFFFFFFFFFFFFF AND PUSH20 0xFFFFFFFFFFFFFFFFFFFFFFFFFFFFFFFFFFFFFFFF AND EQ PUSH2 0xCDC JUMPI PUSH1 0x40 MLOAD PUSH32 0x8C379A000000000000000000000000000000000000000000000000000000000 DUP2 MSTORE PUSH1 0x4 ADD PUSH2 0xCD3 SWAP1 PUSH2 0x206E JUMP JUMPDEST PUSH1 0x40 MLOAD DUP1 SWAP2 SUB SWAP1 REVERT JUMPDEST DUP9 DUP2 PUSH1 0x2 ADD SWAP1 DUP2 PUSH2 0xCED SWAP2 SWAP1 PUSH2 0x223A JUMP JUMPDEST POP DUP8 DUP2 PUSH1 0x3 ADD SWAP1 DUP2 PUSH2 0xCFF SWAP2 SWAP1 PUSH2 0x223A JUMP JUMPDEST POP DUP7 DUP2 PUSH1 0x4 ADD SWAP1 DUP2 PUSH2 0xD11 SWAP2 SWAP1 PUSH2 0x223A JUMP JUMPDEST POP DUP6 DUP2 PUSH1 0x5 ADD DUP2 SWAP1 SSTORE POP DUP5 DUP2 PUSH1 0x6 ADD PUSH1 0x0 PUSH2 0x100 EXP DUP2 SLOAD DUP2 PUSH1 0xFF MUL NOT AND SWAP1 DUP4 ISZERO ISZERO MUL OR SWAP1 SSTORE POP DUP4 DUP2 PUSH1 0x7 ADD DUP2 SWAP1 SSTORE POP DUP3 DUP2 PUSH1 0x8 ADD DUP2 SWAP1 SSTORE POP DUP2 DUP2 PUSH1 0x9 ADD SWAP1 DUP2 PUSH2 0xD5A SWAP2 SWAP1 PUSH2 0x223A JUMP JUMPDEST POP PUSH32 0x866C2D41B4A133B72937235676DB3851DB10C13A3B636D5BCE6DE42F90069B15 DUP11 DUP11 DUP11 DUP11 DUP11 DUP11 DUP11 DUP11 DUP11 PUSH1 0x40 MLOAD PUSH2 0xD9A SWAP10 SWAP9 SWAP8 SWAP7 SWAP6 SWAP5 SWAP4 SWAP3 SWAP2 SWAP1 PUSH2 0x230C JUMP JUMPDEST PUSH1 0x40 MLOAD DUP1 SWAP2 SUB SWAP1 LOG1 POP POP POP POP POP POP POP POP POP POP JUMP JUMPDEST PUSH1 0x0 DUP1 DUP2 SLOAD DUP1 SWAP3 SWAP2 SWAP1 PUSH2 0xDC0 SWAP1 PUSH2 0x1F6E JUMP JUMPDEST SWAP2 SWAP1 POP SSTORE POP PUSH1 0x40 MLOAD DUP1 PUSH2 0x160 ADD PUSH1 0x40 MSTORE DUP1 PUSH1 0x0 SLOAD DUP2 MSTORE PUSH1 0x20 ADD CALLER PUSH20 0xFFFFFFFFFFFFFFFFFFFFFFFFFFFFFFFFFFFFFFFF AND DUP2 MSTORE PUSH1 0x20 ADD DUP10 DUP2 MSTORE PUSH1 0x20 ADD DUP9 DUP2 MSTORE PUSH1 0x20 ADD DUP8 DUP2 MSTORE PUSH1 0x20 ADD DUP7 DUP2 MSTORE PUSH1 0x20 ADD DUP6 ISZERO ISZERO DUP2 MSTORE PUSH1 0x20 ADD DUP5 DUP2 MSTORE PUSH1 0x20 ADD DUP4 DUP2 MSTORE PUSH1 0x20 ADD DUP3 DUP2 MSTORE PUSH1 0x20 ADD PUSH1 0x1 ISZERO ISZERO DUP2 MSTORE POP PUSH1 0x1 PUSH1 0x0 DUP1 SLOAD DUP2 MSTORE PUSH1 0x20 ADD SWAP1 DUP2 MSTORE PUSH1 0x20 ADD PUSH1 0x0 KECCAK256 PUSH1 0x0 DUP3 ADD MLOAD DUP2 PUSH1 0x0 ADD SSTORE PUSH1 0x20 DUP3 ADD MLOAD DUP2 PUSH1 0x1 ADD PUSH1 0x0 PUSH2 0x100 EXP DUP2 SLOAD DUP2 PUSH20 0xFFFFFFFFFFFFFFFFFFFFFFFFFFFFFFFFFFFFFFFF MUL NOT AND SWAP1 DUP4 PUSH20 0xFFFFFFFFFFFFFFFFFFFFFFFFFFFFFFFFFFFFFFFF AND MUL OR SWAP1 SSTORE POP PUSH1 0x40 DUP3 ADD MLOAD DUP2 PUSH1 0x2 ADD SWAP1 DUP2 PUSH2 0xEA8 SWAP2 SWAP1 PUSH2 0x223A JUMP JUMPDEST POP PUSH1 0x60 DUP3 ADD MLOAD DUP2 PUSH1 0x3 ADD SWAP1 DUP2 PUSH2 0xEBE SWAP2 SWAP1 PUSH2 0x223A JUMP JUMPDEST POP PUSH1 0x80 DUP3 ADD MLOAD DUP2 PUSH1 0x4 ADD SWAP1 DUP2 PUSH2 0xED4 SWAP2 SWAP1 PUSH2 0x223A JUMP JUMPDEST POP PUSH1 0xA0 DUP3 ADD MLOAD DUP2 PUSH1 0x5 ADD SSTORE PUSH1 0xC0 DUP3 ADD MLOAD DUP2 PUSH1 0x6 ADD PUSH1 0x0 PUSH2 0x100 EXP DUP2 SLOAD DUP2 PUSH1 0xFF MUL NOT AND SWAP1 DUP4 ISZERO ISZERO MUL OR SWAP1 SSTORE POP PUSH1 0xE0 DUP3 ADD MLOAD DUP2 PUSH1 0x7 ADD SSTORE PUSH2 0x100 DUP3 ADD MLOAD DUP2 PUSH1 0x8 ADD SSTORE PUSH2 0x120 DUP3 ADD MLOAD DUP2 PUSH1 0x9 ADD SWAP1 DUP2 PUSH2 0xF2A SWAP2 SWAP1 PUSH2 0x223A JUMP JUMPDEST POP PUSH2 0x140 DUP3 ADD MLOAD DUP2 PUSH1 0xA ADD PUSH1 0x0 PUSH2 0x100 EXP DUP2 SLOAD DUP2 PUSH1 0xFF MUL NOT AND SWAP1 DUP4 ISZERO ISZERO MUL OR SWAP1 SSTORE POP SWAP1 POP POP PUSH32 0x2A2FDC31E87AF96EB6CD97B0F8CB3DAC6F3B568133EB60DF077A442998C4F44C PUSH1 0x0 SLOAD CALLER DUP11 DUP11 DUP11 DUP11 DUP11 DUP11 DUP11 DUP11 PUSH1 0x40 MLOAD PUSH2 0xF92 SWAP11 SWAP10 SWAP9 SWAP8 SWAP7 SWAP6 SWAP5 SWAP4 SWAP3 SWAP2 SWAP1 PUSH2 0x23B5 JUMP JUMPDEST PUSH1 0x40 MLOAD DUP1 SWAP2 SUB SWAP1 LOG1 POP POP POP POP POP POP POP POP JUMP JUMPDEST PUSH1 0x0 SLOAD DUP2 JUMP JUMPDEST PUSH1 0x0 PUSH1 0x1 PUSH1 0x0 DUP5 DUP2 MSTORE PUSH1 0x20 ADD SWAP1 DUP2 MSTORE PUSH1 0x20 ADD PUSH1 0x0 KECCAK256 SWAP1 POP DUP1 PUSH1 0xA ADD PUSH1 0x0 SWAP1 SLOAD SWAP1 PUSH2 0x100 EXP SWAP1 DIV PUSH1 0xFF AND PUSH2 0x1012 JUMPI PUSH1 0x40 MLOAD PUSH32 0x8C379A000000000000000000000000000000000000000000000000000000000 DUP2 MSTORE PUSH1 0x4 ADD PUSH2 0x1009 SWAP1 PUSH2 0x24B9 JUMP JUMPDEST PUSH1 0x40 MLOAD DUP1 SWAP2 SUB SWAP1 REVERT JUMPDEST PUSH1 0x0 DUP3 GT PUSH2 0x1055 JUMPI PUSH1 0x40 MLOAD PUSH32 0x8C379A000000000000000000000000000000000000000000000000000000000 DUP2 MSTORE PUSH1 0x4 ADD PUSH2 0x104C SWAP1 PUSH2 0x2525 JUMP JUMPDEST PUSH1 0x40 MLOAD DUP1 SWAP2 SUB SWAP1 REVERT JUMPDEST DUP2 DUP2 PUSH1 0x7 ADD SLOAD LT ISZERO PUSH2 0x109C JUMPI PUSH1 0x40 MLOAD PUSH32 0x8C379A000000000000000000000000000000000000000000000000000000000 DUP2 MSTORE PUSH1 0x4 ADD PUSH2 0x1093 SWAP1 PUSH2 0x2591 JUMP JUMPDEST PUSH1 0x40 MLOAD DUP1 SWAP2 SUB SWAP1 REVERT JUMPDEST PUSH1 0x0 DUP3 DUP3 PUSH1 0x8 ADD SLOAD PUSH2 0x10AE SWAP2 SWAP1 PUSH2 0x25B1 JUMP JUMPDEST SWAP1 POP PUSH32 0xBD0FADDF87043DD749C1B9D4DCA8A12589B8CB5E2106832111CE23F219B14367 CALLVALUE DUP3 PUSH1 0x40 MLOAD PUSH2 0x10E1 SWAP3 SWAP2 SWAP1 PUSH2 0x25F3 JUMP JUMPDEST PUSH1 0x40 MLOAD DUP1 SWAP2 SUB SWAP1 LOG1 DUP1 CALLVALUE LT ISZERO PUSH2 0x112C JUMPI PUSH1 0x40 MLOAD PUSH32 0x8C379A000000000000000000000000000000000000000000000000000000000 DUP2 MSTORE PUSH1 0x4 ADD PUSH2 0x1123 SWAP1 PUSH2 0x2668 JUMP JUMPDEST PUSH1 0x40 MLOAD DUP1 SWAP2 SUB SWAP1 REVERT JUMPDEST DUP3 DUP3 PUSH1 0x7 ADD PUSH1 0x0 DUP3 DUP3 SLOAD PUSH2 0x1140 SWAP2 SWAP1 PUSH2 0x1F0B JUMP JUMPDEST SWAP3 POP POP DUP2 SWAP1 SSTORE POP DUP2 PUSH1 0x1 ADD PUSH1 0x0 SWAP1 SLOAD SWAP1 PUSH2 0x100 EXP SWAP1 DIV PUSH20 0xFFFFFFFFFFFFFFFFFFFFFFFFFFFFFFFFFFFFFFFF AND PUSH20 0xFFFFFFFFFFFFFFFFFFFFFFFFFFFFFFFFFFFFFFFF AND PUSH2 0x8FC DUP3 SWAP1 DUP2 ISZERO MUL SWAP1 PUSH1 0x40 MLOAD PUSH1 0x0 PUSH1 0x40 MLOAD DUP1 DUP4 SUB DUP2 DUP6 DUP9 DUP9 CALL SWAP4 POP POP POP POP ISZERO DUP1 ISZERO PUSH2 0x11B1 JUMPI RETURNDATASIZE PUSH1 0x0 DUP1 RETURNDATACOPY RETURNDATASIZE PUSH1 0x0 REVERT JUMPDEST POP DUP1 CALLVALUE GT ISZERO PUSH2 0x120D JUMPI CALLER PUSH20 0xFFFFFFFFFFFFFFFFFFFFFFFFFFFFFFFFFFFFFFFF AND PUSH2 0x8FC DUP3 CALLVALUE PUSH2 0x11E0 SWAP2 SWAP1 PUSH2 0x1F0B JUMP JUMPDEST SWAP1 DUP2 ISZERO MUL SWAP1 PUSH1 0x40 MLOAD PUSH1 0x0 PUSH1 0x40 MLOAD DUP1 DUP4 SUB DUP2 DUP6 DUP9 DUP9 CALL SWAP4 POP POP POP POP ISZERO DUP1 ISZERO PUSH2 0x120B JUMPI RETURNDATASIZE PUSH1 0x0 DUP1 RETURNDATACOPY RETURNDATASIZE PUSH1 0x0 REVERT JUMPDEST POP JUMPDEST PUSH32 0xA4352B1D4903ED52CFAB309159E5F76BA15237A9C58444BB4B875A873C713F5 DUP5 CALLER DUP6 DUP5 PUSH1 0x40 MLOAD PUSH2 0x1242 SWAP5 SWAP4 SWAP3 SWAP2 SWAP1 PUSH2 0x2697 JUMP JUMPDEST PUSH1 0x40 MLOAD DUP1 SWAP2 SUB SWAP1 LOG1 POP POP POP POP JUMP JUMPDEST PUSH1 0x0 PUSH1 0x1 PUSH1 0x0 DUP4 DUP2 MSTORE PUSH1 0x20 ADD SWAP1 DUP2 MSTORE PUSH1 0x20 ADD PUSH1 0x0 KECCAK256 SWAP1 POP CALLER PUSH20 0xFFFFFFFFFFFFFFFFFFFFFFFFFFFFFFFFFFFFFFFF AND DUP2 PUSH1 0x1 ADD PUSH1 0x0 SWAP1 SLOAD SWAP1 PUSH2 0x100 EXP SWAP1 DIV PUSH20 0xFFFFFFFFFFFFFFFFFFFFFFFFFFFFFFFFFFFFFFFF AND PUSH20 0xFFFFFFFFFFFFFFFFFFFFFFFFFFFFFFFFFFFFFFFF AND EQ PUSH2 0x12F9 JUMPI PUSH1 0x40 MLOAD PUSH32 0x8C379A000000000000000000000000000000000000000000000000000000000 DUP2 MSTORE PUSH1 0x4 ADD PUSH2 0x12F0 SWAP1 PUSH2 0x206E JUMP JUMPDEST PUSH1 0x40 MLOAD DUP1 SWAP2 SUB SWAP1 REVERT JUMPDEST DUP1 PUSH1 0xA ADD PUSH1 0x0 SWAP1 SLOAD SWAP1 PUSH2 0x100 EXP SWAP1 DIV PUSH1 0xFF AND PUSH2 0x134A JUMPI PUSH1 0x40 MLOAD PUSH32 0x8C379A000000000000000000000000000000000000000000000000000000000 DUP2 MSTORE PUSH1 0x4 ADD PUSH2 0x1341 SWAP1 PUSH2 0x2728 JUMP JUMPDEST PUSH1 0x40 MLOAD DUP1 SWAP2 SUB SWAP1 REVERT JUMPDEST PUSH1 0x0 DUP2 PUSH1 0xA ADD PUSH1 0x0 PUSH2 0x100 EXP DUP2 SLOAD DUP2 PUSH1 0xFF MUL NOT AND SWAP1 DUP4 ISZERO ISZERO MUL OR SWAP1 SSTORE POP PUSH32 0x58F662E83ED17F55E23546150F0BBE7121C2B63158E49F119899CDFBE0163357 DUP3 PUSH1 0x40 MLOAD PUSH2 0x1396 SWAP2 SWAP1 PUSH2 0x1DB6 JUMP JUMPDEST PUSH1 0x40 MLOAD DUP1 SWAP2 SUB SWAP1 LOG1 POP POP JUMP JUMPDEST PUSH1 0x0 DUP2 PUSH20 0xFFFFFFFFFFFFFFFFFFFFFFFFFFFFFFFFFFFFFFFF AND BALANCE SWAP1 POP SWAP2 SWAP1 POP JUMP JUMPDEST PUSH1 0x40 MLOAD DUP1 PUSH2 0x160 ADD PUSH1 0x40 MSTORE DUP1 PUSH1 0x0 DUP2 MSTORE PUSH1 0x20 ADD PUSH1 0x0 PUSH20 0xFFFFFFFFFFFFFFFFFFFFFFFFFFFFFFFFFFFFFFFF AND DUP2 MSTORE PUSH1 0x20 ADD PUSH1 0x60 DUP2 MSTORE PUSH1 0x20 ADD PUSH1 0x60 DUP2 MSTORE PUSH1 0x20 ADD PUSH1 0x60 DUP2 MSTORE PUSH1 0x20 ADD PUSH1 0x0 DUP2 MSTORE PUSH1 0x20 ADD PUSH1 0x0 ISZERO ISZERO DUP2 MSTORE PUSH1 0x20 ADD PUSH1 0x0 DUP2 MSTORE PUSH1 0x20 ADD PUSH1 0x0 DUP2 MSTORE PUSH1 0x20 ADD PUSH1 0x60 DUP2 MSTORE PUSH1 0x20 ADD PUSH1 0x0 ISZERO ISZERO DUP2 MSTORE POP SWAP1 JUMP JUMPDEST PUSH1 0x0 DUP2 MLOAD SWAP1 POP SWAP2 SWAP1 POP JUMP JUMPDEST PUSH1 0x0 DUP3 DUP3 MSTORE PUSH1 0x20 DUP3 ADD SWAP1 POP SWAP3 SWAP2 POP POP JUMP JUMPDEST PUSH1 0x0 DUP2 SWAP1 POP PUSH1 0x20 DUP3 ADD SWAP1 POP SWAP2 SWAP1 POP JUMP JUMPDEST PUSH1 0x0 DUP2 SWAP1 POP SWAP2 SWAP1 POP JUMP JUMPDEST PUSH2 0x1476 DUP2 PUSH2 0x1463 JUMP JUMPDEST DUP3 MSTORE POP POP JUMP JUMPDEST PUSH1 0x0 PUSH20 0xFFFFFFFFFFFFFFFFFFFFFFFFFFFFFFFFFFFFFFFF DUP3 AND SWAP1 POP SWAP2 SWAP1 POP JUMP JUMPDEST PUSH1 0x0 PUSH2 0x14A7 DUP3 PUSH2 0x147C JUMP JUMPDEST SWAP1 POP SWAP2 SWAP1 POP JUMP JUMPDEST PUSH2 0x14B7 DUP2 PUSH2 0x149C JUMP JUMPDEST DUP3 MSTORE POP POP JUMP JUMPDEST PUSH1 0x0 DUP2 MLOAD SWAP1 POP SWAP2 SWAP1 POP JUMP JUMPDEST PUSH1 0x0 DUP3 DUP3 MSTORE PUSH1 0x20 DUP3 ADD SWAP1 POP SWAP3 SWAP2 POP POP JUMP JUMPDEST PUSH1 0x0 JUMPDEST DUP4 DUP2 LT ISZERO PUSH2 0x14F7 JUMPI DUP1 DUP3 ADD MLOAD DUP2 DUP5 ADD MSTORE PUSH1 0x20 DUP2 ADD SWAP1 POP PUSH2 0x14DC JUMP JUMPDEST PUSH1 0x0 DUP5 DUP5 ADD MSTORE POP POP POP POP JUMP JUMPDEST PUSH1 0x0 PUSH1 0x1F NOT PUSH1 0x1F DUP4 ADD AND SWAP1 POP SWAP2 SWAP1 POP JUMP JUMPDEST PUSH1 0x0 PUSH2 0x151F DUP3 PUSH2 0x14BD JUMP JUMPDEST PUSH2 0x1529 DUP2 DUP6 PUSH2 0x14C8 JUMP JUMPDEST SWAP4 POP PUSH2 0x1539 DUP2 DUP6 PUSH1 0x20 DUP7 ADD PUSH2 0x14D9 JUMP JUMPDEST PUSH2 0x1542 DUP2 PUSH2 0x1503 JUMP JUMPDEST DUP5 ADD SWAP2 POP POP SWAP3 SWAP2 POP POP JUMP JUMPDEST PUSH1 0x0 DUP2 ISZERO ISZERO SWAP1 POP SWAP2 SWAP1 POP JUMP JUMPDEST PUSH2 0x1562 DUP2 PUSH2 0x154D JUMP JUMPDEST DUP3 MSTORE POP POP JUMP JUMPDEST PUSH1 0x0 PUSH2 0x160 DUP4 ADD PUSH1 0x0 DUP4 ADD MLOAD PUSH2 0x1581 PUSH1 0x0 DUP7 ADD DUP3 PUSH2 0x146D JUMP JUMPDEST POP PUSH1 0x20 DUP4 ADD MLOAD PUSH2 0x1594 PUSH1 0x20 DUP7 ADD DUP3 PUSH2 0x14AE JUMP JUMPDEST POP PUSH1 0x40 DUP4 ADD MLOAD DUP5 DUP3 SUB PUSH1 0x40 DUP7 ADD MSTORE PUSH2 0x15AC DUP3 DUP3 PUSH2 0x1514 JUMP JUMPDEST SWAP2 POP POP PUSH1 0x60 DUP4 ADD MLOAD DUP5 DUP3 SUB PUSH1 0x60 DUP7 ADD MSTORE PUSH2 0x15C6 DUP3 DUP3 PUSH2 0x1514 JUMP JUMPDEST SWAP2 POP POP PUSH1 0x80 DUP4 ADD MLOAD DUP5 DUP3 SUB PUSH1 0x80 DUP7 ADD MSTORE PUSH2 0x15E0 DUP3 DUP3 PUSH2 0x1514 JUMP JUMPDEST SWAP2 POP POP PUSH1 0xA0 DUP4 ADD MLOAD PUSH2 0x15F5 PUSH1 0xA0 DUP7 ADD DUP3 PUSH2 0x146D JUMP JUMPDEST POP PUSH1 0xC0 DUP4 ADD MLOAD PUSH2 0x1608 PUSH1 0xC0 DUP7 ADD DUP3 PUSH2 0x1559 JUMP JUMPDEST POP PUSH1 0xE0 DUP4 ADD MLOAD PUSH2 0x161B PUSH1 0xE0 DUP7 ADD DUP3 PUSH2 0x146D JUMP JUMPDEST POP PUSH2 0x100 DUP4 ADD MLOAD PUSH2 0x1630 PUSH2 0x100 DUP7 ADD DUP3 PUSH2 0x146D JUMP JUMPDEST POP PUSH2 0x120 DUP4 ADD MLOAD DUP5 DUP3 SUB PUSH2 0x120 DUP7 ADD MSTORE PUSH2 0x164A DUP3 DUP3 PUSH2 0x1514 JUMP JUMPDEST SWAP2 POP POP PUSH2 0x140 DUP4 ADD MLOAD PUSH2 0x1661 PUSH2 0x140 DUP7 ADD DUP3 PUSH2 0x1559 JUMP JUMPDEST POP DUP1 SWAP2 POP POP SWAP3 SWAP2 POP POP JUMP JUMPDEST PUSH1 0x0 PUSH2 0x1678 DUP4 DUP4 PUSH2 0x1568 JUMP JUMPDEST SWAP1 POP SWAP3 SWAP2 POP POP JUMP JUMPDEST PUSH1 0x0 PUSH1 0x20 DUP3 ADD SWAP1 POP SWAP2 SWAP1 POP JUMP JUMPDEST PUSH1 0x0 PUSH2 0x1698 DUP3 PUSH2 0x1437 JUMP JUMPDEST PUSH2 0x16A2 DUP2 DUP6 PUSH2 0x1442 JUMP JUMPDEST SWAP4 POP DUP4 PUSH1 0x20 DUP3 MUL DUP6 ADD PUSH2 0x16B4 DUP6 PUSH2 0x1453 JUMP JUMPDEST DUP1 PUSH1 0x0 JUMPDEST DUP6 DUP2 LT ISZERO PUSH2 0x16F0 JUMPI DUP5 DUP5 SUB DUP10 MSTORE DUP2 MLOAD PUSH2 0x16D1 DUP6 DUP3 PUSH2 0x166C JUMP JUMPDEST SWAP5 POP PUSH2 0x16DC DUP4 PUSH2 0x1680 JUMP JUMPDEST SWAP3 POP PUSH1 0x20 DUP11 ADD SWAP10 POP POP PUSH1 0x1 DUP2 ADD SWAP1 POP PUSH2 0x16B8 JUMP JUMPDEST POP DUP3 SWAP8 POP DUP8 SWAP6 POP POP POP POP POP POP SWAP3 SWAP2 POP POP JUMP JUMPDEST PUSH1 0x0 PUSH1 0x20 DUP3 ADD SWAP1 POP DUP2 DUP2 SUB PUSH1 0x0 DUP4 ADD MSTORE PUSH2 0x171C DUP2 DUP5 PUSH2 0x168D JUMP JUMPDEST SWAP1 POP SWAP3 SWAP2 POP POP JUMP JUMPDEST PUSH1 0x0 PUSH1 0x40 MLOAD SWAP1 POP SWAP1 JUMP JUMPDEST PUSH1 0x0 DUP1 REVERT JUMPDEST PUSH1 0x0 DUP1 REVERT JUMPDEST PUSH2 0x1741 DUP2 PUSH2 0x1463 JUMP JUMPDEST DUP2 EQ PUSH2 0x174C JUMPI PUSH1 0x0 DUP1 REVERT JUMPDEST POP JUMP JUMPDEST PUSH1 0x0 DUP2 CALLDATALOAD SWAP1 POP PUSH2 0x175E DUP2 PUSH2 0x1738 JUMP JUMPDEST SWAP3 SWAP2 POP POP JUMP JUMPDEST PUSH1 0x0 PUSH1 0x20 DUP3 DUP5 SUB SLT ISZERO PUSH2 0x177A JUMPI PUSH2 0x1779 PUSH2 0x172E JUMP JUMPDEST JUMPDEST PUSH1 0x0 PUSH2 0x1788 DUP5 DUP3 DUP6 ADD PUSH2 0x174F JUMP JUMPDEST SWAP2 POP POP SWAP3 SWAP2 POP POP JUMP JUMPDEST PUSH1 0x0 PUSH2 0x160 DUP4 ADD PUSH1 0x0 DUP4 ADD MLOAD PUSH2 0x17AA PUSH1 0x0 DUP7 ADD DUP3 PUSH2 0x146D JUMP JUMPDEST POP PUSH1 0x20 DUP4 ADD MLOAD PUSH2 0x17BD PUSH1 0x20 DUP7 ADD DUP3 PUSH2 0x14AE JUMP JUMPDEST POP PUSH1 0x40 DUP4 ADD MLOAD DUP5 DUP3 SUB PUSH1 0x40 DUP7 ADD MSTORE PUSH2 0x17D5 DUP3 DUP3 PUSH2 0x1514 JUMP JUMPDEST SWAP2 POP POP PUSH1 0x60 DUP4 ADD MLOAD DUP5 DUP3 SUB PUSH1 0x60 DUP7 ADD MSTORE PUSH2 0x17EF DUP3 DUP3 PUSH2 0x1514 JUMP JUMPDEST SWAP2 POP POP PUSH1 0x80 DUP4 ADD MLOAD DUP5 DUP3 SUB PUSH1 0x80 DUP7 ADD MSTORE PUSH2 0x1809 DUP3 DUP3 PUSH2 0x1514 JUMP JUMPDEST SWAP2 POP POP PUSH1 0xA0 DUP4 ADD MLOAD PUSH2 0x181E PUSH1 0xA0 DUP7 ADD DUP3 PUSH2 0x146D JUMP JUMPDEST POP PUSH1 0xC0 DUP4 ADD MLOAD PUSH2 0x1831 PUSH1 0xC0 DUP7 ADD DUP3 PUSH2 0x1559 JUMP JUMPDEST POP PUSH1 0xE0 DUP4 ADD MLOAD PUSH2 0x1844 PUSH1 0xE0 DUP7 ADD DUP3 PUSH2 0x146D JUMP JUMPDEST POP PUSH2 0x100 DUP4 ADD MLOAD PUSH2 0x1859 PUSH2 0x100 DUP7 ADD DUP3 PUSH2 0x146D JUMP JUMPDEST POP PUSH2 0x120 DUP4 ADD MLOAD DUP5 DUP3 SUB PUSH2 0x120 DUP7 ADD MSTORE PUSH2 0x1873 DUP3 DUP3 PUSH2 0x1514 JUMP JUMPDEST SWAP2 POP POP PUSH2 0x140 DUP4 ADD MLOAD PUSH2 0x188A PUSH2 0x140 DUP7 ADD DUP3 PUSH2 0x1559 JUMP JUMPDEST POP DUP1 SWAP2 POP POP SWAP3 SWAP2 POP POP JUMP JUMPDEST PUSH1 0x0 PUSH1 0x20 DUP3 ADD SWAP1 POP DUP2 DUP2 SUB PUSH1 0x0 DUP4 ADD MSTORE PUSH2 0x18AF DUP2 DUP5 PUSH2 0x1791 JUMP JUMPDEST SWAP1 POP SWAP3 SWAP2 POP POP JUMP JUMPDEST PUSH2 0x18C0 DUP2 PUSH2 0x1463 JUMP JUMPDEST DUP3 MSTORE POP POP JUMP JUMPDEST PUSH2 0x18CF DUP2 PUSH2 0x149C JUMP JUMPDEST DUP3 MSTORE POP POP JUMP JUMPDEST PUSH1 0x0 DUP3 DUP3 MSTORE PUSH1 0x20 DUP3 ADD SWAP1 POP SWAP3 SWAP2 POP POP JUMP JUMPDEST PUSH1 0x0 PUSH2 0x18F1 DUP3 PUSH2 0x14BD JUMP JUMPDEST PUSH2 0x18FB DUP2 DUP6 PUSH2 0x18D5 JUMP JUMPDEST SWAP4 POP PUSH2 0x190B DUP2 DUP6 PUSH1 0x20 DUP7 ADD PUSH2 0x14D9 JUMP JUMPDEST PUSH2 0x1914 DUP2 PUSH2 0x1503 JUMP JUMPDEST DUP5 ADD SWAP2 POP POP SWAP3 SWAP2 POP POP JUMP JUMPDEST PUSH2 0x1928 DUP2 PUSH2 0x154D JUMP JUMPDEST DUP3 MSTORE POP POP JUMP JUMPDEST PUSH1 0x0 PUSH2 0x160 DUP3 ADD SWAP1 POP PUSH2 0x1944 PUSH1 0x0 DUP4 ADD DUP15 PUSH2 0x18B7 JUMP JUMPDEST PUSH2 0x1951 PUSH1 0x20 DUP4 ADD DUP14 PUSH2 0x18C6 JUMP JUMPDEST DUP2 DUP2 SUB PUSH1 0x40 DUP4 ADD MSTORE PUSH2 0x1963 DUP2 DUP13 PUSH2 0x18E6 JUMP JUMPDEST SWAP1 POP DUP2 DUP2 SUB PUSH1 0x60 DUP4 ADD MSTORE PUSH2 0x1977 DUP2 DUP12 PUSH2 0x18E6 JUMP JUMPDEST SWAP1 POP DUP2 DUP2 SUB PUSH1 0x80 DUP4 ADD MSTORE PUSH2 0x198B DUP2 DUP11 PUSH2 0x18E6 JUMP JUMPDEST SWAP1 POP PUSH2 0x199A PUSH1 0xA0 DUP4 ADD DUP10 PUSH2 0x18B7 JUMP JUMPDEST PUSH2 0x19A7 PUSH1 0xC0 DUP4 ADD DUP9 PUSH2 0x191F JUMP JUMPDEST PUSH2 0x19B4 PUSH1 0xE0 DUP4 ADD DUP8 PUSH2 0x18B7 JUMP JUMPDEST PUSH2 0x19C2 PUSH2 0x100 DUP4 ADD DUP7 PUSH2 0x18B7 JUMP JUMPDEST DUP2 DUP2 SUB PUSH2 0x120 DUP4 ADD MSTORE PUSH2 0x19D5 DUP2 DUP6 PUSH2 0x18E6 JUMP JUMPDEST SWAP1 POP PUSH2 0x19E5 PUSH2 0x140 DUP4 ADD DUP5 PUSH2 0x191F JUMP JUMPDEST SWAP13 SWAP12 POP POP POP POP POP POP POP POP POP POP POP POP JUMP JUMPDEST PUSH1 0x0 DUP1 REVERT JUMPDEST PUSH1 0x0 DUP1 REVERT JUMPDEST PUSH32 0x4E487B7100000000000000000000000000000000000000000000000000000000 PUSH1 0x0 MSTORE PUSH1 0x41 PUSH1 0x4 MSTORE PUSH1 0x24 PUSH1 0x0 REVERT JUMPDEST PUSH2 0x1A37 DUP3 PUSH2 0x1503 JUMP JUMPDEST DUP2 ADD DUP2 DUP2 LT PUSH8 0xFFFFFFFFFFFFFFFF DUP3 GT OR ISZERO PUSH2 0x1A56 JUMPI PUSH2 0x1A55 PUSH2 0x19FF JUMP JUMPDEST JUMPDEST DUP1 PUSH1 0x40 MSTORE POP POP POP JUMP JUMPDEST PUSH1 0x0 PUSH2 0x1A69 PUSH2 0x1724 JUMP JUMPDEST SWAP1 POP PUSH2 0x1A75 DUP3 DUP3 PUSH2 0x1A2E JUMP JUMPDEST SWAP2 SWAP1 POP JUMP JUMPDEST PUSH1 0x0 PUSH8 0xFFFFFFFFFFFFFFFF DUP3 GT ISZERO PUSH2 0x1A95 JUMPI PUSH2 0x1A94 PUSH2 0x19FF JUMP JUMPDEST JUMPDEST PUSH2 0x1A9E DUP3 PUSH2 0x1503 JUMP JUMPDEST SWAP1 POP PUSH1 0x20 DUP2 ADD SWAP1 POP SWAP2 SWAP1 POP JUMP JUMPDEST DUP3 DUP2 DUP4 CALLDATACOPY PUSH1 0x0 DUP4 DUP4 ADD MSTORE POP POP POP JUMP JUMPDEST PUSH1 0x0 PUSH2 0x1ACD PUSH2 0x1AC8 DUP5 PUSH2 0x1A7A JUMP JUMPDEST PUSH2 0x1A5F JUMP JUMPDEST SWAP1 POP DUP3 DUP2 MSTORE PUSH1 0x20 DUP2 ADD DUP5 DUP5 DUP5 ADD GT ISZERO PUSH2 0x1AE9 JUMPI PUSH2 0x1AE8 PUSH2 0x19FA JUMP JUMPDEST JUMPDEST PUSH2 0x1AF4 DUP5 DUP3 DUP6 PUSH2 0x1AAB JUMP JUMPDEST POP SWAP4 SWAP3 POP POP POP JUMP JUMPDEST PUSH1 0x0 DUP3 PUSH1 0x1F DUP4 ADD SLT PUSH2 0x1B11 JUMPI PUSH2 0x1B10 PUSH2 0x19F5 JUMP JUMPDEST JUMPDEST DUP2 CALLDATALOAD PUSH2 0x1B21 DUP5 DUP3 PUSH1 0x20 DUP7 ADD PUSH2 0x1ABA JUMP JUMPDEST SWAP2 POP POP SWAP3 SWAP2 POP POP JUMP JUMPDEST PUSH2 0x1B33 DUP2 PUSH2 0x154D JUMP JUMPDEST DUP2 EQ PUSH2 0x1B3E JUMPI PUSH1 0x0 DUP1 REVERT JUMPDEST POP JUMP JUMPDEST PUSH1 0x0 DUP2 CALLDATALOAD SWAP1 POP PUSH2 0x1B50 DUP2 PUSH2 0x1B2A JUMP JUMPDEST SWAP3 SWAP2 POP POP JUMP JUMPDEST PUSH1 0x0 DUP1 PUSH1 0x0 DUP1 PUSH1 0x0 DUP1 PUSH1 0x0 DUP1 PUSH1 0x0 PUSH2 0x120 DUP11 DUP13 SUB SLT ISZERO PUSH2 0x1B79 JUMPI PUSH2 0x1B78 PUSH2 0x172E JUMP JUMPDEST JUMPDEST PUSH1 0x0 PUSH2 0x1B87 DUP13 DUP3 DUP14 ADD PUSH2 0x174F JUMP JUMPDEST SWAP10 POP POP PUSH1 0x20 DUP11 ADD CALLDATALOAD PUSH8 0xFFFFFFFFFFFFFFFF DUP2 GT ISZERO PUSH2 0x1BA8 JUMPI PUSH2 0x1BA7 PUSH2 0x1733 JUMP JUMPDEST JUMPDEST PUSH2 0x1BB4 DUP13 DUP3 DUP14 ADD PUSH2 0x1AFC JUMP JUMPDEST SWAP9 POP POP PUSH1 0x40 DUP11 ADD CALLDATALOAD PUSH8 0xFFFFFFFFFFFFFFFF DUP2 GT ISZERO PUSH2 0x1BD5 JUMPI PUSH2 0x1BD4 PUSH2 0x1733 JUMP JUMPDEST JUMPDEST PUSH2 0x1BE1 DUP13 DUP3 DUP14 ADD PUSH2 0x1AFC JUMP JUMPDEST SWAP8 POP POP PUSH1 0x60 DUP11 ADD CALLDATALOAD PUSH8 0xFFFFFFFFFFFFFFFF DUP2 GT ISZERO PUSH2 0x1C02 JUMPI PUSH2 0x1C01 PUSH2 0x1733 JUMP JUMPDEST JUMPDEST PUSH2 0x1C0E DUP13 DUP3 DUP14 ADD PUSH2 0x1AFC JUMP JUMPDEST SWAP7 POP POP PUSH1 0x80 PUSH2 0x1C1F DUP13 DUP3 DUP14 ADD PUSH2 0x174F JUMP JUMPDEST SWAP6 POP POP PUSH1 0xA0 PUSH2 0x1C30 DUP13 DUP3 DUP14 ADD PUSH2 0x1B41 JUMP JUMPDEST SWAP5 POP POP PUSH1 0xC0 PUSH2 0x1C41 DUP13 DUP3 DUP14 ADD PUSH2 0x174F JUMP JUMPDEST SWAP4 POP POP PUSH1 0xE0 PUSH2 0x1C52 DUP13 DUP3 DUP14 ADD PUSH2 0x174F JUMP JUMPDEST SWAP3 POP POP PUSH2 0x100 DUP11 ADD CALLDATALOAD PUSH8 0xFFFFFFFFFFFFFFFF DUP2 GT ISZERO PUSH2 0x1C74 JUMPI PUSH2 0x1C73 PUSH2 0x1733 JUMP JUMPDEST JUMPDEST PUSH2 0x1C80 DUP13 DUP3 DUP14 ADD PUSH2 0x1AFC JUMP JUMPDEST SWAP2 POP POP SWAP3 SWAP6 SWAP9 POP SWAP3 SWAP6 SWAP9 POP SWAP3 SWAP6 SWAP9 JUMP JUMPDEST PUSH1 0x0 DUP1 PUSH1 0x0 DUP1 PUSH1 0x0 DUP1 PUSH1 0x0 DUP1 PUSH2 0x100 DUP10 DUP12 SUB SLT ISZERO PUSH2 0x1CB1 JUMPI PUSH2 0x1CB0 PUSH2 0x172E JUMP JUMPDEST JUMPDEST PUSH1 0x0 DUP10 ADD CALLDATALOAD PUSH8 0xFFFFFFFFFFFFFFFF DUP2 GT ISZERO PUSH2 0x1CCF JUMPI PUSH2 0x1CCE PUSH2 0x1733 JUMP JUMPDEST JUMPDEST PUSH2 0x1CDB DUP12 DUP3 DUP13 ADD PUSH2 0x1AFC JUMP JUMPDEST SWAP9 POP POP PUSH1 0x20 DUP10 ADD CALLDATALOAD PUSH8 0xFFFFFFFFFFFFFFFF DUP2 GT ISZERO PUSH2 0x1CFC JUMPI PUSH2 0x1CFB PUSH2 0x1733 JUMP JUMPDEST JUMPDEST PUSH2 0x1D08 DUP12 DUP3 DUP13 ADD PUSH2 0x1AFC JUMP JUMPDEST SWAP8 POP POP PUSH1 0x40 DUP10 ADD CALLDATALOAD PUSH8 0xFFFFFFFFFFFFFFFF DUP2 GT ISZERO PUSH2 0x1D29 JUMPI PUSH2 0x1D28 PUSH2 0x1733 JUMP JUMPDEST JUMPDEST PUSH2 0x1D35 DUP12 DUP3 DUP13 ADD PUSH2 0x1AFC JUMP JUMPDEST SWAP7 POP POP PUSH1 0x60 PUSH2 0x1D46 DUP12 DUP3 DUP13 ADD PUSH2 0x174F JUMP JUMPDEST SWAP6 POP POP PUSH1 0x80 PUSH2 0x1D57 DUP12 DUP3 DUP13 ADD PUSH2 0x1B41 JUMP JUMPDEST SWAP5 POP POP PUSH1 0xA0 PUSH2 0x1D68 DUP12 DUP3 DUP13 ADD PUSH2 0x174F JUMP JUMPDEST SWAP4 POP POP PUSH1 0xC0 PUSH2 0x1D79 DUP12 DUP3 DUP13 ADD PUSH2 0x174F JUMP JUMPDEST SWAP3 POP POP PUSH1 0xE0 DUP10 ADD CALLDATALOAD PUSH8 0xFFFFFFFFFFFFFFFF DUP2 GT ISZERO PUSH2 0x1D9A JUMPI PUSH2 0x1D99 PUSH2 0x1733 JUMP JUMPDEST JUMPDEST PUSH2 0x1DA6 DUP12 DUP3 DUP13 ADD PUSH2 0x1AFC JUMP JUMPDEST SWAP2 POP POP SWAP3 SWAP6 SWAP9 POP SWAP3 SWAP6 SWAP9 SWAP1 SWAP4 SWAP7 POP JUMP JUMPDEST PUSH1 0x0 PUSH1 0x20 DUP3 ADD SWAP1 POP PUSH2 0x1DCB PUSH1 0x0 DUP4 ADD DUP5 PUSH2 0x18B7 JUMP JUMPDEST SWAP3 SWAP2 POP POP JUMP JUMPDEST PUSH1 0x0 DUP1 PUSH1 0x40 DUP4 DUP6 SUB SLT ISZERO PUSH2 0x1DE8 JUMPI PUSH2 0x1DE7 PUSH2 0x172E JUMP JUMPDEST JUMPDEST PUSH1 0x0 PUSH2 0x1DF6 DUP6 DUP3 DUP7 ADD PUSH2 0x174F JUMP JUMPDEST SWAP3 POP POP PUSH1 0x20 PUSH2 0x1E07 DUP6 DUP3 DUP7 ADD PUSH2 0x174F JUMP JUMPDEST SWAP2 POP POP SWAP3 POP SWAP3 SWAP1 POP JUMP JUMPDEST PUSH1 0x0 PUSH2 0x1E1C DUP3 PUSH2 0x147C JUMP JUMPDEST SWAP1 POP SWAP2 SWAP1 POP JUMP JUMPDEST PUSH2 0x1E2C DUP2 PUSH2 0x1E11 JUMP JUMPDEST DUP2 EQ PUSH2 0x1E37 JUMPI PUSH1 0x0 DUP1 REVERT JUMPDEST POP JUMP JUMPDEST PUSH1 0x0 DUP2 CALLDATALOAD SWAP1 POP PUSH2 0x1E49 DUP2 PUSH2 0x1E23 JUMP JUMPDEST SWAP3 SWAP2 POP POP JUMP JUMPDEST PUSH1 0x0 PUSH1 0x20 DUP3 DUP5 SUB SLT ISZERO PUSH2 0x1E65 JUMPI PUSH2 0x1E64 PUSH2 0x172E JUMP JUMPDEST JUMPDEST PUSH1 0x0 PUSH2 0x1E73 DUP5 DUP3 DUP6 ADD PUSH2 0x1E3A JUMP JUMPDEST SWAP2 POP POP SWAP3 SWAP2 POP POP JUMP JUMPDEST PUSH32 0x4E487B7100000000000000000000000000000000000000000000000000000000 PUSH1 0x0 MSTORE PUSH1 0x22 PUSH1 0x4 MSTORE PUSH1 0x24 PUSH1 0x0 REVERT JUMPDEST PUSH1 0x0 PUSH1 0x2 DUP3 DIV SWAP1 POP PUSH1 0x1 DUP3 AND DUP1 PUSH2 0x1EC3 JUMPI PUSH1 0x7F DUP3 AND SWAP2 POP JUMPDEST PUSH1 0x20 DUP3 LT DUP2 SUB PUSH2 0x1ED6 JUMPI PUSH2 0x1ED5 PUSH2 0x1E7C JUMP JUMPDEST JUMPDEST POP SWAP2 SWAP1 POP JUMP JUMPDEST PUSH32 0x4E487B7100000000000000000000000000000000000000000000000000000000 PUSH1 0x0 MSTORE PUSH1 0x11 PUSH1 0x4 MSTORE PUSH1 0x24 PUSH1 0x0 REVERT JUMPDEST PUSH1 0x0 PUSH2 0x1F16 DUP3 PUSH2 0x1463 JUMP JUMPDEST SWAP2 POP PUSH2 0x1F21 DUP4 PUSH2 0x1463 JUMP JUMPDEST SWAP3 POP DUP3 DUP3 SUB SWAP1 POP DUP2 DUP2 GT ISZERO PUSH2 0x1F39 JUMPI PUSH2 0x1F38 PUSH2 0x1EDC JUMP JUMPDEST JUMPDEST SWAP3 SWAP2 POP POP JUMP JUMPDEST PUSH32 0x4E487B7100000000000000000000000000000000000000000000000000000000 PUSH1 0x0 MSTORE PUSH1 0x32 PUSH1 0x4 MSTORE PUSH1 0x24 PUSH1 0x0 REVERT JUMPDEST PUSH1 0x0 PUSH2 0x1F79 DUP3 PUSH2 0x1463 JUMP JUMPDEST SWAP2 POP PUSH32 0xFFFFFFFFFFFFFFFFFFFFFFFFFFFFFFFFFFFFFFFFFFFFFFFFFFFFFFFFFFFFFFFF DUP3 SUB PUSH2 0x1FAB JUMPI PUSH2 0x1FAA PUSH2 0x1EDC JUMP JUMPDEST JUMPDEST PUSH1 0x1 DUP3 ADD SWAP1 POP SWAP2 SWAP1 POP JUMP JUMPDEST PUSH32 0x496E76616C69642063726F702049440000000000000000000000000000000000 PUSH1 0x0 DUP3 ADD MSTORE POP JUMP JUMPDEST PUSH1 0x0 PUSH2 0x1FEC PUSH1 0xF DUP4 PUSH2 0x18D5 JUMP JUMPDEST SWAP2 POP PUSH2 0x1FF7 DUP3 PUSH2 0x1FB6 JUMP JUMPDEST PUSH1 0x20 DUP3 ADD SWAP1 POP SWAP2 SWAP1 POP JUMP JUMPDEST PUSH1 0x0 PUSH1 0x20 DUP3 ADD SWAP1 POP DUP2 DUP2 SUB PUSH1 0x0 DUP4 ADD MSTORE PUSH2 0x201B DUP2 PUSH2 0x1FDF JUMP JUMPDEST SWAP1 POP SWAP2 SWAP1 POP JUMP JUMPDEST PUSH32 0x556E617574686F72697A65640000000000000000000000000000000000000000 PUSH1 0x0 DUP3 ADD MSTORE POP JUMP JUMPDEST PUSH1 0x0 PUSH2 0x2058 PUSH1 0xC DUP4 PUSH2 0x18D5 JUMP JUMPDEST SWAP2 POP PUSH2 0x2063 DUP3 PUSH2 0x2022 JUMP JUMPDEST PUSH1 0x20 DUP3 ADD SWAP1 POP SWAP2 SWAP1 POP JUMP JUMPDEST PUSH1 0x0 PUSH1 0x20 DUP3 ADD SWAP1 POP DUP2 DUP2 SUB PUSH1 0x0 DUP4 ADD MSTORE PUSH2 0x2087 DUP2 PUSH2 0x204B JUMP JUMPDEST SWAP1 POP SWAP2 SWAP1 POP JUMP JUMPDEST PUSH1 0x0 DUP2 SWAP1 POP DUP2 PUSH1 0x0 MSTORE PUSH1 0x20 PUSH1 0x0 KECCAK256 SWAP1 POP SWAP2 SWAP1 POP JUMP JUMPDEST PUSH1 0x0 PUSH1 0x20 PUSH1 0x1F DUP4 ADD DIV SWAP1 POP SWAP2 SWAP1 POP JUMP JUMPDEST PUSH1 0x0 DUP3 DUP3 SHL SWAP1 POP SWAP3 SWAP2 POP POP JUMP JUMPDEST PUSH1 0x0 PUSH1 0x8 DUP4 MUL PUSH2 0x20F0 PUSH32 0xFFFFFFFFFFFFFFFFFFFFFFFFFFFFFFFFFFFFFFFFFFFFFFFFFFFFFFFFFFFFFFFF DUP3 PUSH2 0x20B3 JUMP JUMPDEST PUSH2 0x20FA DUP7 DUP4 PUSH2 0x20B3 JUMP JUMPDEST SWAP6 POP DUP1 NOT DUP5 AND SWAP4 POP DUP1 DUP7 AND DUP5 OR SWAP3 POP POP POP SWAP4 SWAP3 POP POP POP JUMP JUMPDEST PUSH1 0x0 DUP2 SWAP1 POP SWAP2 SWAP1 POP JUMP JUMPDEST PUSH1 0x0 PUSH2 0x2137 PUSH2 0x2132 PUSH2 0x212D DUP5 PUSH2 0x1463 JUMP JUMPDEST PUSH2 0x2112 JUMP JUMPDEST PUSH2 0x1463 JUMP JUMPDEST SWAP1 POP SWAP2 SWAP1 POP JUMP JUMPDEST PUSH1 0x0 DUP2 SWAP1 POP SWAP2 SWAP1 POP JUMP JUMPDEST PUSH2 0x2151 DUP4 PUSH2 0x211C JUMP JUMPDEST PUSH2 0x2165 PUSH2 0x215D DUP3 PUSH2 0x213E JUMP JUMPDEST DUP5 DUP5 SLOAD PUSH2 0x20C0 JUMP JUMPDEST DUP3 SSTORE POP POP POP POP JUMP JUMPDEST PUSH1 0x0 SWAP1 JUMP JUMPDEST PUSH2 0x217A PUSH2 0x216D JUMP JUMPDEST PUSH2 0x2185 DUP2 DUP5 DUP5 PUSH2 0x2148 JUMP JUMPDEST POP POP POP JUMP JUMPDEST JUMPDEST DUP2 DUP2 LT ISZERO PUSH2 0x21A9 JUMPI PUSH2 0x219E PUSH1 0x0 DUP3 PUSH2 0x2172 JUMP JUMPDEST PUSH1 0x1 DUP2 ADD SWAP1 POP PUSH2 0x218B JUMP JUMPDEST POP POP JUMP JUMPDEST PUSH1 0x1F DUP3 GT ISZERO PUSH2 0x21EE JUMPI PUSH2 0x21BF DUP2 PUSH2 0x208E JUMP JUMPDEST PUSH2 0x21C8 DUP5 PUSH2 0x20A3 JUMP JUMPDEST DUP2 ADD PUSH1 0x20 DUP6 LT ISZERO PUSH2 0x21D7 JUMPI DUP2 SWAP1 POP JUMPDEST PUSH2 0x21EB PUSH2 0x21E3 DUP6 PUSH2 0x20A3 JUMP JUMPDEST DUP4 ADD DUP3 PUSH2 0x218A JUMP JUMPDEST POP POP JUMPDEST POP POP POP JUMP JUMPDEST PUSH1 0x0 DUP3 DUP3 SHR SWAP1 POP SWAP3 SWAP2 POP POP JUMP JUMPDEST PUSH1 0x0 PUSH2 0x2211 PUSH1 0x0 NOT DUP5 PUSH1 0x8 MUL PUSH2 0x21F3 JUMP JUMPDEST NOT DUP1 DUP4 AND SWAP2 POP POP SWAP3 SWAP2 POP POP JUMP JUMPDEST PUSH1 0x0 PUSH2 0x222A DUP4 DUP4 PUSH2 0x2200 JUMP JUMPDEST SWAP2 POP DUP3 PUSH1 0x2 MUL DUP3 OR SWAP1 POP SWAP3 SWAP2 POP POP JUMP JUMPDEST PUSH2 0x2243 DUP3 PUSH2 0x14BD JUMP JUMPDEST PUSH8 0xFFFFFFFFFFFFFFFF DUP2 GT ISZERO PUSH2 0x225C JUMPI PUSH2 0x225B PUSH2 0x19FF JUMP JUMPDEST JUMPDEST PUSH2 0x2266 DUP3 SLOAD PUSH2 0x1EAB JUMP JUMPDEST PUSH2 0x2271 DUP3 DUP3 DUP6 PUSH2 0x21AD JUMP JUMPDEST PUSH1 0x0 PUSH1 0x20 SWAP1 POP PUSH1 0x1F DUP4 GT PUSH1 0x1 DUP2 EQ PUSH2 0x22A4 JUMPI PUSH1 0x0 DUP5 ISZERO PUSH2 0x2292 JUMPI DUP3 DUP8 ADD MLOAD SWAP1 POP JUMPDEST PUSH2 0x229C DUP6 DUP3 PUSH2 0x221E JUMP JUMPDEST DUP7 SSTORE POP PUSH2 0x2304 JUMP JUMPDEST PUSH1 0x1F NOT DUP5 AND PUSH2 0x22B2 DUP7 PUSH2 0x208E JUMP JUMPDEST PUSH1 0x0 JUMPDEST DUP3 DUP2 LT ISZERO PUSH2 0x22DA JUMPI DUP5 DUP10 ADD MLOAD DUP3 SSTORE PUSH1 0x1 DUP3 ADD SWAP2 POP PUSH1 0x20 DUP6 ADD SWAP5 POP PUSH1 0x20 DUP2 ADD SWAP1 POP PUSH2 0x22B5 JUMP JUMPDEST DUP7 DUP4 LT ISZERO PUSH2 0x22F7 JUMPI DUP5 DUP10 ADD MLOAD PUSH2 0x22F3 PUSH1 0x1F DUP10 AND DUP3 PUSH2 0x2200 JUMP JUMPDEST DUP4 SSTORE POP JUMPDEST PUSH1 0x1 PUSH1 0x2 DUP9 MUL ADD DUP9 SSTORE POP POP POP JUMPDEST POP POP POP POP POP POP JUMP JUMPDEST PUSH1 0x0 PUSH2 0x120 DUP3 ADD SWAP1 POP PUSH2 0x2322 PUSH1 0x0 DUP4 ADD DUP13 PUSH2 0x18B7 JUMP JUMPDEST DUP2 DUP2 SUB PUSH1 0x20 DUP4 ADD MSTORE PUSH2 0x2334 DUP2 DUP12 PUSH2 0x18E6 JUMP JUMPDEST SWAP1 POP DUP2 DUP2 SUB PUSH1 0x40 DUP4 ADD MSTORE PUSH2 0x2348 DUP2 DUP11 PUSH2 0x18E6 JUMP JUMPDEST SWAP1 POP DUP2 DUP2 SUB PUSH1 0x60 DUP4 ADD MSTORE PUSH2 0x235C DUP2 DUP10 PUSH2 0x18E6 JUMP JUMPDEST SWAP1 POP PUSH2 0x236B PUSH1 0x80 DUP4 ADD DUP9 PUSH2 0x18B7 JUMP JUMPDEST PUSH2 0x2378 PUSH1 0xA0 DUP4 ADD DUP8 PUSH2 0x191F JUMP JUMPDEST PUSH2 0x2385 PUSH1 0xC0 DUP4 ADD DUP7 PUSH2 0x18B7 JUMP JUMPDEST PUSH2 0x2392 PUSH1 0xE0 DUP4 ADD DUP6 PUSH2 0x18B7 JUMP JUMPDEST DUP2 DUP2 SUB PUSH2 0x100 DUP4 ADD MSTORE PUSH2 0x23A5 DUP2 DUP5 PUSH2 0x18E6 JUMP JUMPDEST SWAP1 POP SWAP11 SWAP10 POP POP POP POP POP POP POP POP POP POP JUMP JUMPDEST PUSH1 0x0 PUSH2 0x140 DUP3 ADD SWAP1 POP PUSH2 0x23CB PUSH1 0x0 DUP4 ADD DUP14 PUSH2 0x18B7 JUMP JUMPDEST PUSH2 0x23D8 PUSH1 0x20 DUP4 ADD DUP13 PUSH2 0x18C6 JUMP JUMPDEST DUP2 DUP2 SUB PUSH1 0x40 DUP4 ADD MSTORE PUSH2 0x23EA DUP2 DUP12 PUSH2 0x18E6 JUMP JUMPDEST SWAP1 POP DUP2 DUP2 SUB PUSH1 0x60 DUP4 ADD MSTORE PUSH2 0x23FE DUP2 DUP11 PUSH2 0x18E6 JUMP JUMPDEST SWAP1 POP DUP2 DUP2 SUB PUSH1 0x80 DUP4 ADD MSTORE PUSH2 0x2412 DUP2 DUP10 PUSH2 0x18E6 JUMP JUMPDEST SWAP1 POP PUSH2 0x2421 PUSH1 0xA0 DUP4 ADD DUP9 PUSH2 0x18B7 JUMP JUMPDEST PUSH2 0x242E PUSH1 0xC0 DUP4 ADD DUP8 PUSH2 0x191F JUMP JUMPDEST PUSH2 0x243B PUSH1 0xE0 DUP4 ADD DUP7 PUSH2 0x18B7 JUMP JUMPDEST PUSH2 0x2449 PUSH2 0x100 DUP4 ADD DUP6 PUSH2 0x18B7 JUMP JUMPDEST DUP2 DUP2 SUB PUSH2 0x120 DUP4 ADD MSTORE PUSH2 0x245C DUP2 DUP5 PUSH2 0x18E6 JUMP JUMPDEST SWAP1 POP SWAP12 SWAP11 POP POP POP POP POP POP POP POP POP POP POP JUMP JUMPDEST PUSH32 0x43726F70206973206E6F74206C69737465640000000000000000000000000000 PUSH1 0x0 DUP3 ADD MSTORE POP JUMP JUMPDEST PUSH1 0x0 PUSH2 0x24A3 PUSH1 0x12 DUP4 PUSH2 0x18D5 JUMP JUMPDEST SWAP2 POP PUSH2 0x24AE DUP3 PUSH2 0x246D JUMP JUMPDEST PUSH1 0x20 DUP3 ADD SWAP1 POP SWAP2 SWAP1 POP JUMP JUMPDEST PUSH1 0x0 PUSH1 0x20 DUP3 ADD SWAP1 POP DUP2 DUP2 SUB PUSH1 0x0 DUP4 ADD MSTORE PUSH2 0x24D2 DUP2 PUSH2 0x2496 JUMP JUMPDEST SWAP1 POP SWAP2 SWAP1 POP JUMP JUMPDEST PUSH32 0x496E76616C6964207175616E7469747900000000000000000000000000000000 PUSH1 0x0 DUP3 ADD MSTORE POP JUMP JUMPDEST PUSH1 0x0 PUSH2 0x250F PUSH1 0x10 DUP4 PUSH2 0x18D5 JUMP JUMPDEST SWAP2 POP PUSH2 0x251A DUP3 PUSH2 0x24D9 JUMP JUMPDEST PUSH1 0x20 DUP3 ADD SWAP1 POP SWAP2 SWAP1 POP JUMP JUMPDEST PUSH1 0x0 PUSH1 0x20 DUP3 ADD SWAP1 POP DUP2 DUP2 SUB PUSH1 0x0 DUP4 ADD MSTORE PUSH2 0x253E DUP2 PUSH2 0x2502 JUMP JUMPDEST SWAP1 POP SWAP2 SWAP1 POP JUMP JUMPDEST PUSH32 0x4E6F7420656E6F756768207175616E7469747920617661696C61626C65000000 PUSH1 0x0 DUP3 ADD MSTORE POP JUMP JUMPDEST PUSH1 0x0 PUSH2 0x257B PUSH1 0x1D DUP4 PUSH2 0x18D5 JUMP JUMPDEST SWAP2 POP PUSH2 0x2586 DUP3 PUSH2 0x2545 JUMP JUMPDEST PUSH1 0x20 DUP3 ADD SWAP1 POP SWAP2 SWAP1 POP JUMP JUMPDEST PUSH1 0x0 PUSH1 0x20 DUP3 ADD SWAP1 POP DUP2 DUP2 SUB PUSH1 0x0 DUP4 ADD MSTORE PUSH2 0x25AA DUP2 PUSH2 0x256E JUMP JUMPDEST SWAP1 POP SWAP2 SWAP1 POP JUMP JUMPDEST PUSH1 0x0 PUSH2 0x25BC DUP3 PUSH2 0x1463 JUMP JUMPDEST SWAP2 POP PUSH2 0x25C7 DUP4 PUSH2 0x1463 JUMP JUMPDEST SWAP3 POP DUP3 DUP3 MUL PUSH2 0x25D5 DUP2 PUSH2 0x1463 JUMP JUMPDEST SWAP2 POP DUP3 DUP3 DIV DUP5 EQ DUP4 ISZERO OR PUSH2 0x25EC JUMPI PUSH2 0x25EB PUSH2 0x1EDC JUMP JUMPDEST JUMPDEST POP SWAP3 SWAP2 POP POP JUMP JUMPDEST PUSH1 0x0 PUSH1 0x40 DUP3 ADD SWAP1 POP PUSH2 0x2608 PUSH1 0x0 DUP4 ADD DUP6 PUSH2 0x18B7 JUMP JUMPDEST PUSH2 0x2615 PUSH1 0x20 DUP4 ADD DUP5 PUSH2 0x18B7 JUMP JUMPDEST SWAP4 SWAP3 POP POP POP JUMP JUMPDEST PUSH32 0x496E73756666696369656E74204554482073656E740000000000000000000000 PUSH1 0x0 DUP3 ADD MSTORE POP JUMP JUMPDEST PUSH1 0x0 PUSH2 0x2652 PUSH1 0x15 DUP4 PUSH2 0x18D5 JUMP JUMPDEST SWAP2 POP PUSH2 0x265D DUP3 PUSH2 0x261C JUMP JUMPDEST PUSH1 0x20 DUP3 ADD SWAP1 POP SWAP2 SWAP1 POP JUMP JUMPDEST PUSH1 0x0 PUSH1 0x20 DUP3 ADD SWAP1 POP DUP2 DUP2 SUB PUSH1 0x0 DUP4 ADD MSTORE PUSH2 0x2681 DUP2 PUSH2 0x2645 JUMP JUMPDEST SWAP1 POP SWAP2 SWAP1 POP JUMP JUMPDEST PUSH2 0x2691 DUP2 PUSH2 0x1E11 JUMP JUMPDEST DUP3 MSTORE POP POP JUMP JUMPDEST PUSH1 0x0 PUSH1 0x80 DUP3 ADD SWAP1 POP PUSH2 0x26AC PUSH1 0x0 DUP4 ADD DUP8 PUSH2 0x18B7 JUMP JUMPDEST PUSH2 0x26B9 PUSH1 0x20 DUP4 ADD DUP7 PUSH2 0x2688 JUMP JUMPDEST PUSH2 0x26C6 PUSH1 0x40 DUP4 ADD DUP6 PUSH2 0x18B7 JUMP JUMPDEST PUSH2 0x26D3 PUSH1 0x60 DUP4 ADD DUP5 PUSH2 0x18B7 JUMP JUMPDEST SWAP6 SWAP5 POP POP POP POP POP JUMP JUMPDEST PUSH32 0x416C72656164792064656C697374656400000000000000000000000000000000 PUSH1 0x0 DUP3 ADD MSTORE POP JUMP JUMPDEST PUSH1 0x0 PUSH2 0x2712 PUSH1 0x10 DUP4 PUSH2 0x18D5 JUMP JUMPDEST SWAP2 POP PUSH2 0x271D DUP3 PUSH2 0x26DC JUMP JUMPDEST PUSH1 0x20 DUP3 ADD SWAP1 POP SWAP2 SWAP1 POP JUMP JUMPDEST PUSH1 0x0 PUSH1 0x20 DUP3 ADD SWAP1 POP DUP2 DUP2 SUB PUSH1 0x0 DUP4 ADD MSTORE PUSH2 0x2741 DUP2 PUSH2 0x2705 JUMP JUMPDEST SWAP1 POP SWAP2 SWAP1 POP JUMP INVALID LOG2 PUSH5 0x6970667358 0x22 SLT KECCAK256 0xE2 SWAP9 0xBE 0x28 0xAF SWAP6 PUSH17 0xF04749AEE59B90DFA51800DF507C94EF89 DUP4 REVERT 0xED 0xC4 POP 0xC3 0xCE 0xD0 PUSH5 0x736F6C6343 STOP ADDMOD GT STOP CALLER "},"methodIdentifiers":{"buyCrop(uint256,uint256)":"a086dd88","cropCounter()":"9385882a","crops(uint256)":"70c9f1a5","delistCrop(uint256)":"e9b88958","getAllCrops()":"1d48dc90","getBalance(address)":"f8b2cb4f","getCropById(uint256)":"2a674aa8","listCrop(string,string,string,uint256,bool,uint256,uint256,string)":"8cbeb8f6","updateCrop(uint256,string,string,string,uint256,bool,uint256,uint256,string)":"89c3c3c4"}}}}}